{"abi":[{"inputs":[{"internalType":"uint256","name":"minimum","type":"uint256"},{"internalType":"address","name":"creator","type":"address"}],"stateMutability":"nonpayable","type":"constructor"},{"inputs":[{"internalType":"uint256","name":"index","type":"uint256"}],"name":"approveRequest","outputs":[],"stateMutability":"nonpayable","type":"function"},{"inputs":[{"internalType":"address","name":"","type":"address"}],"name":"approvers","outputs":[{"internalType":"bool","name":"","type":"bool"}],"stateMutability":"view","type":"function"},{"inputs":[],"name":"contribute","outputs":[],"stateMutability":"payable","type":"function"},{"inputs":[{"internalType":"string","name":"description","type":"string"},{"internalType":"uint256","name":"value","type":"uint256"},{"internalType":"address","name":"recipient","type":"address"}],"name":"createRequest","outputs":[],"stateMutability":"nonpayable","type":"function"},{"inputs":[{"internalType":"uint256","name":"index","type":"uint256"}],"name":"finaliseRequest","outputs":[],"stateMutability":"nonpayable","type":"function"},{"inputs":[],"name":"manager","outputs":[{"internalType":"address","name":"","type":"address"}],"stateMutability":"view","type":"function"},{"inputs":[],"name":"minimumContribution","outputs":[{"internalType":"uint256","name":"","type":"uint256"}],"stateMutability":"view","type":"function"},{"inputs":[{"internalType":"uint256","name":"","type":"uint256"}],"name":"requests","outputs":[{"internalType":"string","name":"description","type":"string"},{"internalType":"uint256","name":"value","type":"uint256"},{"internalType":"address","name":"recipient","type":"address"},{"internalType":"bool","name":"complete","type":"bool"},{"internalType":"uint256","name":"approvalCount","type":"uint256"}],"stateMutability":"view","type":"function"}],"devdoc":{"kind":"dev","methods":{},"version":1},"evm":{"assembly":"    /* \"Campaign.sol\":411:2130  contract Campaign {... */\n  mstore(0x40, 0x80)\n    /* \"Campaign.sol\":836:837  0 */\n  0x00\n    /* \"Campaign.sol\":814:837  uint approversCount = 0 */\n  0x05\n  sstore\n    /* \"Campaign.sol\":930:1055  constructor(uint minimum, address creator) {... */\n  callvalue\n  dup1\n  iszero\n  tag_1\n  jumpi\n  0x00\n  dup1\n  revert\ntag_1:\n  pop\n  mload(0x40)\n  sub(codesize, bytecodeSize)\n  dup1\n  bytecodeSize\n  dup4\n  codecopy\n  dup2\n  dup2\n  add\n  0x40\n  mstore\n  dup2\n  add\n  swap1\n  tag_2\n  swap2\n  swap1\n  tag_3\n  jump\t// in\ntag_2:\n    /* \"Campaign.sol\":993:1000  creator */\n  dup1\n    /* \"Campaign.sol\":983:990  manager */\n  0x01\n  0x00\n    /* \"Campaign.sol\":983:1000  manager = creator */\n  0x0100\n  exp\n  dup2\n  sload\n  dup2\n  0xffffffffffffffffffffffffffffffffffffffff\n  mul\n  not\n  and\n  swap1\n  dup4\n  0xffffffffffffffffffffffffffffffffffffffff\n  and\n  mul\n  or\n  swap1\n  sstore\n  pop\n    /* \"Campaign.sol\":1032:1039  minimum */\n  dup2\n    /* \"Campaign.sol\":1010:1029  minimumContribution */\n  0x02\n    /* \"Campaign.sol\":1010:1039  minimumContribution = minimum */\n  dup2\n  swap1\n  sstore\n  pop\n    /* \"Campaign.sol\":930:1055  constructor(uint minimum, address creator) {... */\n  pop\n  pop\n    /* \"Campaign.sol\":411:2130  contract Campaign {... */\n  jump(tag_6)\n    /* \"#utility.yul\":88:205   */\ntag_8:\n    /* \"#utility.yul\":197:198   */\n  0x00\n    /* \"#utility.yul\":194:195   */\n  dup1\n    /* \"#utility.yul\":187:199   */\n  revert\n    /* \"#utility.yul\":334:411   */\ntag_10:\n    /* \"#utility.yul\":371:378   */\n  0x00\n    /* \"#utility.yul\":400:405   */\n  dup2\n    /* \"#utility.yul\":389:405   */\n  swap1\n  pop\n    /* \"#utility.yul\":334:411   */\n  swap2\n  swap1\n  pop\n  jump\t// out\n    /* \"#utility.yul\":417:539   */\ntag_11:\n    /* \"#utility.yul\":490:514   */\n  tag_23\n    /* \"#utility.yul\":508:513   */\n  dup2\n    /* \"#utility.yul\":490:514   */\n  tag_10\n  jump\t// in\ntag_23:\n    /* \"#utility.yul\":483:488   */\n  dup2\n    /* \"#utility.yul\":480:515   */\n  eq\n    /* \"#utility.yul\":470:533   */\n  tag_24\n  jumpi\n    /* \"#utility.yul\":529:530   */\n  0x00\n    /* \"#utility.yul\":526:527   */\n  dup1\n    /* \"#utility.yul\":519:531   */\n  revert\n    /* \"#utility.yul\":470:533   */\ntag_24:\n    /* \"#utility.yul\":417:539   */\n  pop\n  jump\t// out\n    /* \"#utility.yul\":545:688   */\ntag_12:\n    /* \"#utility.yul\":602:607   */\n  0x00\n    /* \"#utility.yul\":633:639   */\n  dup2\n    /* \"#utility.yul\":627:640   */\n  mload\n    /* \"#utility.yul\":618:640   */\n  swap1\n  pop\n    /* \"#utility.yul\":649:682   */\n  tag_26\n    /* \"#utility.yul\":676:681   */\n  dup2\n    /* \"#utility.yul\":649:682   */\n  tag_11\n  jump\t// in\ntag_26:\n    /* \"#utility.yul\":545:688   */\n  swap3\n  swap2\n  pop\n  pop\n  jump\t// out\n    /* \"#utility.yul\":694:820   */\ntag_13:\n    /* \"#utility.yul\":731:738   */\n  0x00\n    /* \"#utility.yul\":771:813   */\n  0xffffffffffffffffffffffffffffffffffffffff\n    /* \"#utility.yul\":764:769   */\n  dup3\n    /* \"#utility.yul\":760:814   */\n  and\n    /* \"#utility.yul\":749:814   */\n  swap1\n  pop\n    /* \"#utility.yul\":694:820   */\n  swap2\n  swap1\n  pop\n  jump\t// out\n    /* \"#utility.yul\":826:922   */\ntag_14:\n    /* \"#utility.yul\":863:870   */\n  0x00\n    /* \"#utility.yul\":892:916   */\n  tag_29\n    /* \"#utility.yul\":910:915   */\n  dup3\n    /* \"#utility.yul\":892:916   */\n  tag_13\n  jump\t// in\ntag_29:\n    /* \"#utility.yul\":881:916   */\n  swap1\n  pop\n    /* \"#utility.yul\":826:922   */\n  swap2\n  swap1\n  pop\n  jump\t// out\n    /* \"#utility.yul\":928:1050   */\ntag_15:\n    /* \"#utility.yul\":1001:1025   */\n  tag_31\n    /* \"#utility.yul\":1019:1024   */\n  dup2\n    /* \"#utility.yul\":1001:1025   */\n  tag_14\n  jump\t// in\ntag_31:\n    /* \"#utility.yul\":994:999   */\n  dup2\n    /* \"#utility.yul\":991:1026   */\n  eq\n    /* \"#utility.yul\":981:1044   */\n  tag_32\n  jumpi\n    /* \"#utility.yul\":1040:1041   */\n  0x00\n    /* \"#utility.yul\":1037:1038   */\n  dup1\n    /* \"#utility.yul\":1030:1042   */\n  revert\n    /* \"#utility.yul\":981:1044   */\ntag_32:\n    /* \"#utility.yul\":928:1050   */\n  pop\n  jump\t// out\n    /* \"#utility.yul\":1056:1199   */\ntag_16:\n    /* \"#utility.yul\":1113:1118   */\n  0x00\n    /* \"#utility.yul\":1144:1150   */\n  dup2\n    /* \"#utility.yul\":1138:1151   */\n  mload\n    /* \"#utility.yul\":1129:1151   */\n  swap1\n  pop\n    /* \"#utility.yul\":1160:1193   */\n  tag_34\n    /* \"#utility.yul\":1187:1192   */\n  dup2\n    /* \"#utility.yul\":1160:1193   */\n  tag_15\n  jump\t// in\ntag_34:\n    /* \"#utility.yul\":1056:1199   */\n  swap3\n  swap2\n  pop\n  pop\n  jump\t// out\n    /* \"#utility.yul\":1205:1712   */\ntag_3:\n    /* \"#utility.yul\":1284:1290   */\n  0x00\n    /* \"#utility.yul\":1292:1298   */\n  dup1\n    /* \"#utility.yul\":1341:1343   */\n  0x40\n    /* \"#utility.yul\":1329:1338   */\n  dup4\n    /* \"#utility.yul\":1320:1327   */\n  dup6\n    /* \"#utility.yul\":1316:1339   */\n  sub\n    /* \"#utility.yul\":1312:1344   */\n  slt\n    /* \"#utility.yul\":1309:1428   */\n  iszero\n  tag_36\n  jumpi\n    /* \"#utility.yul\":1347:1426   */\n  tag_37\n  tag_8\n  jump\t// in\ntag_37:\n    /* \"#utility.yul\":1309:1428   */\ntag_36:\n    /* \"#utility.yul\":1467:1468   */\n  0x00\n    /* \"#utility.yul\":1492:1556   */\n  tag_38\n    /* \"#utility.yul\":1548:1555   */\n  dup6\n    /* \"#utility.yul\":1539:1545   */\n  dup3\n    /* \"#utility.yul\":1528:1537   */\n  dup7\n    /* \"#utility.yul\":1524:1546   */\n  add\n    /* \"#utility.yul\":1492:1556   */\n  tag_12\n  jump\t// in\ntag_38:\n    /* \"#utility.yul\":1482:1556   */\n  swap3\n  pop\n    /* \"#utility.yul\":1438:1566   */\n  pop\n    /* \"#utility.yul\":1605:1607   */\n  0x20\n    /* \"#utility.yul\":1631:1695   */\n  tag_39\n    /* \"#utility.yul\":1687:1694   */\n  dup6\n    /* \"#utility.yul\":1678:1684   */\n  dup3\n    /* \"#utility.yul\":1667:1676   */\n  dup7\n    /* \"#utility.yul\":1663:1685   */\n  add\n    /* \"#utility.yul\":1631:1695   */\n  tag_16\n  jump\t// in\ntag_39:\n    /* \"#utility.yul\":1621:1695   */\n  swap2\n  pop\n    /* \"#utility.yul\":1576:1705   */\n  pop\n    /* \"#utility.yul\":1205:1712   */\n  swap3\n  pop\n  swap3\n  swap1\n  pop\n  jump\t// out\n    /* \"Campaign.sol\":411:2130  contract Campaign {... */\ntag_6:\n  dataSize(sub_0)\n  dup1\n  dataOffset(sub_0)\n  0x00\n  codecopy\n  0x00\n  return\nstop\n\nsub_0: assembly {\n        /* \"Campaign.sol\":411:2130  contract Campaign {... */\n      mstore(0x40, 0x80)\n      jumpi(tag_1, lt(calldatasize, 0x04))\n      shr(0xe0, calldataload(0x00))\n      dup1\n      0x937e09b1\n      gt\n      tag_10\n      jumpi\n      dup1\n      0x937e09b1\n      eq\n      tag_6\n      jumpi\n      dup1\n      0xd7bb99ba\n      eq\n      tag_7\n      jumpi\n      dup1\n      0xd7d1bbdb\n      eq\n      tag_8\n      jumpi\n      dup1\n      0xe7b668b4\n      eq\n      tag_9\n      jumpi\n      jump(tag_1)\n    tag_10:\n      dup1\n      0x0a144391\n      eq\n      tag_2\n      jumpi\n      dup1\n      0x481c6a75\n      eq\n      tag_3\n      jumpi\n      dup1\n      0x81d12c58\n      eq\n      tag_4\n      jumpi\n      dup1\n      0x8a9cfd55\n      eq\n      tag_5\n      jumpi\n    tag_1:\n      0x00\n      dup1\n      revert\n        /* \"Campaign.sol\":745:786  mapping(address => bool) public approvers */\n    tag_2:\n      callvalue\n      dup1\n      iszero\n      tag_11\n      jumpi\n      0x00\n      dup1\n      revert\n    tag_11:\n      pop\n      tag_12\n      0x04\n      dup1\n      calldatasize\n      sub\n      dup2\n      add\n      swap1\n      tag_13\n      swap2\n      swap1\n      tag_14\n      jump\t// in\n    tag_13:\n      tag_15\n      jump\t// in\n    tag_12:\n      mload(0x40)\n      tag_16\n      swap2\n      swap1\n      tag_17\n      jump\t// in\n    tag_16:\n      mload(0x40)\n      dup1\n      swap2\n      sub\n      swap1\n      return\n        /* \"Campaign.sol\":680:702  address public manager */\n    tag_3:\n      callvalue\n      dup1\n      iszero\n      tag_18\n      jumpi\n      0x00\n      dup1\n      revert\n    tag_18:\n      pop\n      tag_19\n      tag_20\n      jump\t// in\n    tag_19:\n      mload(0x40)\n      tag_21\n      swap2\n      swap1\n      tag_22\n      jump\t// in\n    tag_21:\n      mload(0x40)\n      dup1\n      swap2\n      sub\n      swap1\n      return\n        /* \"Campaign.sol\":633:674  mapping (uint => Request) public requests */\n    tag_4:\n      callvalue\n      dup1\n      iszero\n      tag_23\n      jumpi\n      0x00\n      dup1\n      revert\n    tag_23:\n      pop\n      tag_24\n      0x04\n      dup1\n      calldatasize\n      sub\n      dup2\n      add\n      swap1\n      tag_25\n      swap2\n      swap1\n      tag_26\n      jump\t// in\n    tag_25:\n      tag_27\n      jump\t// in\n    tag_24:\n      mload(0x40)\n      tag_28\n      swap6\n      swap5\n      swap4\n      swap3\n      swap2\n      swap1\n      tag_29\n      jump\t// in\n    tag_28:\n      mload(0x40)\n      dup1\n      swap2\n      sub\n      swap1\n      return\n        /* \"Campaign.sol\":1200:1523  function createRequest(string memory description, uint value, address recipient) public restricted {            ... */\n    tag_5:\n      callvalue\n      dup1\n      iszero\n      tag_30\n      jumpi\n      0x00\n      dup1\n      revert\n    tag_30:\n      pop\n      tag_31\n      0x04\n      dup1\n      calldatasize\n      sub\n      dup2\n      add\n      swap1\n      tag_32\n      swap2\n      swap1\n      tag_33\n      jump\t// in\n    tag_32:\n      tag_34\n      jump\t// in\n    tag_31:\n      stop\n        /* \"Campaign.sol\":708:739  uint public minimumContribution */\n    tag_6:\n      callvalue\n      dup1\n      iszero\n      tag_35\n      jumpi\n      0x00\n      dup1\n      revert\n    tag_35:\n      pop\n      tag_36\n      tag_37\n      jump\t// in\n    tag_36:\n      mload(0x40)\n      tag_38\n      swap2\n      swap1\n      tag_39\n      jump\t// in\n    tag_38:\n      mload(0x40)\n      dup1\n      swap2\n      sub\n      swap1\n      return\n        /* \"Campaign.sol\":1061:1194  function contribute() public payable {... */\n    tag_7:\n      tag_40\n      tag_41\n      jump\t// in\n    tag_40:\n      stop\n        /* \"Campaign.sol\":1529:1826  function approveRequest(uint index) public {... */\n    tag_8:\n      callvalue\n      dup1\n      iszero\n      tag_42\n      jumpi\n      0x00\n      dup1\n      revert\n    tag_42:\n      pop\n      tag_43\n      0x04\n      dup1\n      calldatasize\n      sub\n      dup2\n      add\n      swap1\n      tag_44\n      swap2\n      swap1\n      tag_26\n      jump\t// in\n    tag_44:\n      tag_45\n      jump\t// in\n    tag_43:\n      stop\n        /* \"Campaign.sol\":1832:2127  function finaliseRequest(uint index) public {... */\n    tag_9:\n      callvalue\n      dup1\n      iszero\n      tag_46\n      jumpi\n      0x00\n      dup1\n      revert\n    tag_46:\n      pop\n      tag_47\n      0x04\n      dup1\n      calldatasize\n      sub\n      dup2\n      add\n      swap1\n      tag_48\n      swap2\n      swap1\n      tag_26\n      jump\t// in\n    tag_48:\n      tag_49\n      jump\t// in\n    tag_47:\n      stop\n        /* \"Campaign.sol\":745:786  mapping(address => bool) public approvers */\n    tag_15:\n      mstore(0x20, 0x03)\n      dup1\n      0x00\n      mstore\n      keccak256(0x00, 0x40)\n      0x00\n      swap2\n      pop\n      sload\n      swap1\n      0x0100\n      exp\n      swap1\n      div\n      0xff\n      and\n      dup2\n      jump\t// out\n        /* \"Campaign.sol\":680:702  address public manager */\n    tag_20:\n      0x01\n      0x00\n      swap1\n      sload\n      swap1\n      0x0100\n      exp\n      swap1\n      div\n      0xffffffffffffffffffffffffffffffffffffffff\n      and\n      dup2\n      jump\t// out\n        /* \"Campaign.sol\":633:674  mapping (uint => Request) public requests */\n    tag_27:\n      mstore(0x20, 0x00)\n      dup1\n      0x00\n      mstore\n      keccak256(0x00, 0x40)\n      0x00\n      swap2\n      pop\n      swap1\n      pop\n      dup1\n      0x00\n      add\n      dup1\n      sload\n      tag_50\n      swap1\n      tag_51\n      jump\t// in\n    tag_50:\n      dup1\n      0x1f\n      add\n      0x20\n      dup1\n      swap2\n      div\n      mul\n      0x20\n      add\n      mload(0x40)\n      swap1\n      dup2\n      add\n      0x40\n      mstore\n      dup1\n      swap3\n      swap2\n      swap1\n      dup2\n      dup2\n      mstore\n      0x20\n      add\n      dup3\n      dup1\n      sload\n      tag_52\n      swap1\n      tag_51\n      jump\t// in\n    tag_52:\n      dup1\n      iszero\n      tag_53\n      jumpi\n      dup1\n      0x1f\n      lt\n      tag_54\n      jumpi\n      0x0100\n      dup1\n      dup4\n      sload\n      div\n      mul\n      dup4\n      mstore\n      swap2\n      0x20\n      add\n      swap2\n      jump(tag_53)\n    tag_54:\n      dup3\n      add\n      swap2\n      swap1\n      0x00\n      mstore\n      keccak256(0x00, 0x20)\n      swap1\n    tag_55:\n      dup2\n      sload\n      dup2\n      mstore\n      swap1\n      0x01\n      add\n      swap1\n      0x20\n      add\n      dup1\n      dup4\n      gt\n      tag_55\n      jumpi\n      dup3\n      swap1\n      sub\n      0x1f\n      and\n      dup3\n      add\n      swap2\n    tag_53:\n      pop\n      pop\n      pop\n      pop\n      pop\n      swap1\n      dup1\n      0x01\n      add\n      sload\n      swap1\n      dup1\n      0x02\n      add\n      0x00\n      swap1\n      sload\n      swap1\n      0x0100\n      exp\n      swap1\n      div\n      0xffffffffffffffffffffffffffffffffffffffff\n      and\n      swap1\n      dup1\n      0x02\n      add\n      0x14\n      swap1\n      sload\n      swap1\n      0x0100\n      exp\n      swap1\n      div\n      0xff\n      and\n      swap1\n      dup1\n      0x03\n      add\n      sload\n      swap1\n      pop\n      dup6\n      jump\t// out\n        /* \"Campaign.sol\":1200:1523  function createRequest(string memory description, uint value, address recipient) public restricted {            ... */\n    tag_34:\n        /* \"Campaign.sol\":898:905  manager */\n      0x01\n      0x00\n      swap1\n      sload\n      swap1\n      0x0100\n      exp\n      swap1\n      div\n      0xffffffffffffffffffffffffffffffffffffffff\n      and\n        /* \"Campaign.sol\":884:905  msg.sender == manager */\n      0xffffffffffffffffffffffffffffffffffffffff\n      and\n        /* \"Campaign.sol\":884:894  msg.sender */\n      caller\n        /* \"Campaign.sol\":884:905  msg.sender == manager */\n      0xffffffffffffffffffffffffffffffffffffffff\n      and\n      eq\n        /* \"Campaign.sol\":876:906  require(msg.sender == manager) */\n      tag_57\n      jumpi\n      0x00\n      dup1\n      revert\n    tag_57:\n        /* \"Campaign.sol\":1321:1338  Request storage r */\n      0x00\n        /* \"Campaign.sol\":1341:1349  requests */\n      dup1\n        /* \"Campaign.sol\":1341:1364  requests[numRequests++] */\n      0x00\n        /* \"Campaign.sol\":1350:1361  numRequests */\n      0x04\n      0x00\n        /* \"Campaign.sol\":1350:1363  numRequests++ */\n      dup2\n      sload\n      dup1\n      swap3\n      swap2\n      swap1\n      tag_59\n      swap1\n      tag_60\n      jump\t// in\n    tag_59:\n      swap2\n      swap1\n      pop\n      sstore\n        /* \"Campaign.sol\":1341:1364  requests[numRequests++] */\n      dup2\n      mstore\n      0x20\n      add\n      swap1\n      dup2\n      mstore\n      0x20\n      add\n      0x00\n      keccak256\n        /* \"Campaign.sol\":1321:1364  Request storage r = requests[numRequests++] */\n      swap1\n      pop\n        /* \"Campaign.sol\":1390:1401  description */\n      dup4\n        /* \"Campaign.sol\":1374:1375  r */\n      dup2\n        /* \"Campaign.sol\":1374:1387  r.description */\n      0x00\n      add\n        /* \"Campaign.sol\":1374:1401  r.description = description */\n      swap1\n      dup1\n      mload\n      swap1\n      0x20\n      add\n      swap1\n      tag_61\n      swap3\n      swap2\n      swap1\n      tag_62\n      jump\t// in\n    tag_61:\n      pop\n        /* \"Campaign.sol\":1421:1426  value */\n      dup3\n        /* \"Campaign.sol\":1411:1412  r */\n      dup2\n        /* \"Campaign.sol\":1411:1418  r.value */\n      0x01\n      add\n        /* \"Campaign.sol\":1411:1426  r.value = value */\n      dup2\n      swap1\n      sstore\n      pop\n        /* \"Campaign.sol\":1450:1459  recipient */\n      dup2\n        /* \"Campaign.sol\":1436:1437  r */\n      dup2\n        /* \"Campaign.sol\":1436:1447  r.recipient */\n      0x02\n      add\n      0x00\n        /* \"Campaign.sol\":1436:1459  r.recipient = recipient */\n      0x0100\n      exp\n      dup2\n      sload\n      dup2\n      0xffffffffffffffffffffffffffffffffffffffff\n      mul\n      not\n      and\n      swap1\n      dup4\n      0xffffffffffffffffffffffffffffffffffffffff\n      and\n      mul\n      or\n      swap1\n      sstore\n      pop\n        /* \"Campaign.sol\":1482:1487  false */\n      0x00\n        /* \"Campaign.sol\":1469:1470  r */\n      dup2\n        /* \"Campaign.sol\":1469:1479  r.complete */\n      0x02\n      add\n      0x14\n        /* \"Campaign.sol\":1469:1487  r.complete = false */\n      0x0100\n      exp\n      dup2\n      sload\n      dup2\n      0xff\n      mul\n      not\n      and\n      swap1\n      dup4\n      iszero\n      iszero\n      mul\n      or\n      swap1\n      sstore\n      pop\n        /* \"Campaign.sol\":1515:1516  0 */\n      0x00\n        /* \"Campaign.sol\":1497:1498  r */\n      dup2\n        /* \"Campaign.sol\":1497:1512  r.approvalCount */\n      0x03\n      add\n        /* \"Campaign.sol\":1497:1516  r.approvalCount = 0 */\n      dup2\n      swap1\n      sstore\n      pop\n        /* \"Campaign.sol\":1299:1523  {            ... */\n      pop\n        /* \"Campaign.sol\":1200:1523  function createRequest(string memory description, uint value, address recipient) public restricted {            ... */\n      pop\n      pop\n      pop\n      jump\t// out\n        /* \"Campaign.sol\":708:739  uint public minimumContribution */\n    tag_37:\n      sload(0x02)\n      dup2\n      jump\t// out\n        /* \"Campaign.sol\":1061:1194  function contribute() public payable {... */\n    tag_41:\n        /* \"Campaign.sol\":1128:1147  minimumContribution */\n      sload(0x02)\n        /* \"Campaign.sol\":1116:1125  msg.value */\n      callvalue\n        /* \"Campaign.sol\":1116:1147  msg.value > minimumContribution */\n      gt\n        /* \"Campaign.sol\":1108:1148  require(msg.value > minimumContribution) */\n      tag_64\n      jumpi\n      0x00\n      dup1\n      revert\n    tag_64:\n        /* \"Campaign.sol\":1183:1187  true */\n      0x01\n        /* \"Campaign.sol\":1159:1168  approvers */\n      0x03\n        /* \"Campaign.sol\":1159:1180  approvers[msg.sender] */\n      0x00\n        /* \"Campaign.sol\":1169:1179  msg.sender */\n      caller\n        /* \"Campaign.sol\":1159:1180  approvers[msg.sender] */\n      0xffffffffffffffffffffffffffffffffffffffff\n      and\n      0xffffffffffffffffffffffffffffffffffffffff\n      and\n      dup2\n      mstore\n      0x20\n      add\n      swap1\n      dup2\n      mstore\n      0x20\n      add\n      0x00\n      keccak256\n      0x00\n        /* \"Campaign.sol\":1159:1187  approvers[msg.sender] = true */\n      0x0100\n      exp\n      dup2\n      sload\n      dup2\n      0xff\n      mul\n      not\n      and\n      swap1\n      dup4\n      iszero\n      iszero\n      mul\n      or\n      swap1\n      sstore\n      pop\n        /* \"Campaign.sol\":1061:1194  function contribute() public payable {... */\n      jump\t// out\n        /* \"Campaign.sol\":1529:1826  function approveRequest(uint index) public {... */\n    tag_45:\n        /* \"Campaign.sol\":1582:1605  Request storage request */\n      0x00\n        /* \"Campaign.sol\":1608:1616  requests */\n      dup1\n        /* \"Campaign.sol\":1608:1623  requests[index] */\n      0x00\n        /* \"Campaign.sol\":1617:1622  index */\n      dup4\n        /* \"Campaign.sol\":1608:1623  requests[index] */\n      dup2\n      mstore\n      0x20\n      add\n      swap1\n      dup2\n      mstore\n      0x20\n      add\n      0x00\n      keccak256\n        /* \"Campaign.sol\":1582:1623  Request storage request = requests[index] */\n      swap1\n      pop\n        /* \"Campaign.sol\":1642:1651  approvers */\n      0x03\n        /* \"Campaign.sol\":1642:1663  approvers[msg.sender] */\n      0x00\n        /* \"Campaign.sol\":1652:1662  msg.sender */\n      caller\n        /* \"Campaign.sol\":1642:1663  approvers[msg.sender] */\n      0xffffffffffffffffffffffffffffffffffffffff\n      and\n      0xffffffffffffffffffffffffffffffffffffffff\n      and\n      dup2\n      mstore\n      0x20\n      add\n      swap1\n      dup2\n      mstore\n      0x20\n      add\n      0x00\n      keccak256\n      0x00\n      swap1\n      sload\n      swap1\n      0x0100\n      exp\n      swap1\n      div\n      0xff\n      and\n        /* \"Campaign.sol\":1634:1664  require(approvers[msg.sender]) */\n      tag_66\n      jumpi\n      0x00\n      dup1\n      revert\n    tag_66:\n        /* \"Campaign.sol\":1683:1690  request */\n      dup1\n        /* \"Campaign.sol\":1683:1700  request.approvals */\n      0x04\n      add\n        /* \"Campaign.sol\":1683:1712  request.approvals[msg.sender] */\n      0x00\n        /* \"Campaign.sol\":1701:1711  msg.sender */\n      caller\n        /* \"Campaign.sol\":1683:1712  request.approvals[msg.sender] */\n      0xffffffffffffffffffffffffffffffffffffffff\n      and\n      0xffffffffffffffffffffffffffffffffffffffff\n      and\n      dup2\n      mstore\n      0x20\n      add\n      swap1\n      dup2\n      mstore\n      0x20\n      add\n      0x00\n      keccak256\n      0x00\n      swap1\n      sload\n      swap1\n      0x0100\n      exp\n      swap1\n      div\n      0xff\n      and\n        /* \"Campaign.sol\":1682:1712  !request.approvals[msg.sender] */\n      iszero\n        /* \"Campaign.sol\":1674:1713  require(!request.approvals[msg.sender]) */\n      tag_67\n      jumpi\n      0x00\n      dup1\n      revert\n    tag_67:\n        /* \"Campaign.sol\":1756:1760  true */\n      0x01\n        /* \"Campaign.sol\":1724:1731  request */\n      dup2\n        /* \"Campaign.sol\":1724:1741  request.approvals */\n      0x04\n      add\n        /* \"Campaign.sol\":1724:1753  request.approvals[msg.sender] */\n      0x00\n        /* \"Campaign.sol\":1742:1752  msg.sender */\n      caller\n        /* \"Campaign.sol\":1724:1753  request.approvals[msg.sender] */\n      0xffffffffffffffffffffffffffffffffffffffff\n      and\n      0xffffffffffffffffffffffffffffffffffffffff\n      and\n      dup2\n      mstore\n      0x20\n      add\n      swap1\n      dup2\n      mstore\n      0x20\n      add\n      0x00\n      keccak256\n      0x00\n        /* \"Campaign.sol\":1724:1760  request.approvals[msg.sender] = true */\n      0x0100\n      exp\n      dup2\n      sload\n      dup2\n      0xff\n      mul\n      not\n      and\n      swap1\n      dup4\n      iszero\n      iszero\n      mul\n      or\n      swap1\n      sstore\n      pop\n        /* \"Campaign.sol\":1770:1777  request */\n      dup1\n        /* \"Campaign.sol\":1770:1791  request.approvalCount */\n      0x03\n      add\n      0x00\n        /* \"Campaign.sol\":1770:1793  request.approvalCount++ */\n      dup2\n      sload\n      dup1\n      swap3\n      swap2\n      swap1\n      tag_68\n      swap1\n      tag_60\n      jump\t// in\n    tag_68:\n      swap2\n      swap1\n      pop\n      sstore\n      pop\n        /* \"Campaign.sol\":1803:1817  approversCount */\n      0x05\n      0x00\n        /* \"Campaign.sol\":1803:1819  approversCount++ */\n      dup2\n      sload\n      dup1\n      swap3\n      swap2\n      swap1\n      tag_69\n      swap1\n      tag_60\n      jump\t// in\n    tag_69:\n      swap2\n      swap1\n      pop\n      sstore\n      pop\n        /* \"Campaign.sol\":1572:1826  {... */\n      pop\n        /* \"Campaign.sol\":1529:1826  function approveRequest(uint index) public {... */\n      pop\n      jump\t// out\n        /* \"Campaign.sol\":1832:2127  function finaliseRequest(uint index) public {... */\n    tag_49:\n        /* \"Campaign.sol\":1886:1909  Request storage request */\n      0x00\n        /* \"Campaign.sol\":1912:1920  requests */\n      dup1\n        /* \"Campaign.sol\":1912:1927  requests[index] */\n      0x00\n        /* \"Campaign.sol\":1921:1926  index */\n      dup4\n        /* \"Campaign.sol\":1912:1927  requests[index] */\n      dup2\n      mstore\n      0x20\n      add\n      swap1\n      dup2\n      mstore\n      0x20\n      add\n      0x00\n      keccak256\n        /* \"Campaign.sol\":1886:1927  Request storage request = requests[index] */\n      swap1\n      pop\n        /* \"Campaign.sol\":1946:1953  request */\n      dup1\n        /* \"Campaign.sol\":1946:1962  request.complete */\n      0x02\n      add\n      0x14\n      swap1\n      sload\n      swap1\n      0x0100\n      exp\n      swap1\n      div\n      0xff\n      and\n        /* \"Campaign.sol\":1945:1962  !request.complete */\n      iszero\n        /* \"Campaign.sol\":1937:1963  require(!request.complete) */\n      tag_71\n      jumpi\n      0x00\n      dup1\n      revert\n    tag_71:\n        /* \"Campaign.sol\":2021:2022  2 */\n      0x02\n        /* \"Campaign.sol\":2006:2020  approversCount */\n      sload(0x05)\n        /* \"Campaign.sol\":2006:2022  approversCount/2 */\n      tag_72\n      swap2\n      swap1\n      tag_73\n      jump\t// in\n    tag_72:\n        /* \"Campaign.sol\":1981:1988  request */\n      dup2\n        /* \"Campaign.sol\":1981:2002  request.approvalCount */\n      0x03\n      add\n      sload\n        /* \"Campaign.sol\":1981:2023  request.approvalCount > (approversCount/2) */\n      gt\n        /* \"Campaign.sol\":1973:2025  require(request.approvalCount > (approversCount/2) ) */\n      tag_74\n      jumpi\n      0x00\n      dup1\n      revert\n    tag_74:\n        /* \"Campaign.sol\":2044:2051  request */\n      dup1\n        /* \"Campaign.sol\":2044:2061  request.recipient */\n      0x02\n      add\n      0x00\n      swap1\n      sload\n      swap1\n      0x0100\n      exp\n      swap1\n      div\n      0xffffffffffffffffffffffffffffffffffffffff\n      and\n        /* \"Campaign.sol\":2036:2071  payable(request.recipient).transfer */\n      0xffffffffffffffffffffffffffffffffffffffff\n      and\n        /* \"Campaign.sol\":2036:2086  payable(request.recipient).transfer(request.value) */\n      0x08fc\n        /* \"Campaign.sol\":2072:2079  request */\n      dup3\n        /* \"Campaign.sol\":2072:2085  request.value */\n      0x01\n      add\n      sload\n        /* \"Campaign.sol\":2036:2086  payable(request.recipient).transfer(request.value) */\n      swap1\n      dup2\n      iszero\n      mul\n      swap1\n      mload(0x40)\n      0x00\n      mload(0x40)\n      dup1\n      dup4\n      sub\n      dup2\n      dup6\n      dup9\n      dup9\n      call\n      swap4\n      pop\n      pop\n      pop\n      pop\n      iszero\n      dup1\n      iszero\n      tag_76\n      jumpi\n      returndatasize\n      0x00\n      dup1\n      returndatacopy\n      revert(0x00, returndatasize)\n    tag_76:\n      pop\n        /* \"Campaign.sol\":2115:2119  true */\n      0x01\n        /* \"Campaign.sol\":2096:2103  request */\n      dup2\n        /* \"Campaign.sol\":2096:2112  request.complete */\n      0x02\n      add\n      0x14\n        /* \"Campaign.sol\":2096:2119  request.complete = true */\n      0x0100\n      exp\n      dup2\n      sload\n      dup2\n      0xff\n      mul\n      not\n      and\n      swap1\n      dup4\n      iszero\n      iszero\n      mul\n      or\n      swap1\n      sstore\n      pop\n        /* \"Campaign.sol\":1876:2127  {... */\n      pop\n        /* \"Campaign.sol\":1832:2127  function finaliseRequest(uint index) public {... */\n      pop\n      jump\t// out\n    tag_62:\n      dup3\n      dup1\n      sload\n      tag_77\n      swap1\n      tag_51\n      jump\t// in\n    tag_77:\n      swap1\n      0x00\n      mstore\n      keccak256(0x00, 0x20)\n      swap1\n      0x1f\n      add\n      0x20\n      swap1\n      div\n      dup2\n      add\n      swap3\n      dup3\n      tag_79\n      jumpi\n      0x00\n      dup6\n      sstore\n      jump(tag_78)\n    tag_79:\n      dup3\n      0x1f\n      lt\n      tag_80\n      jumpi\n      dup1\n      mload\n      not(0xff)\n      and\n      dup4\n      dup1\n      add\n      or\n      dup6\n      sstore\n      jump(tag_78)\n    tag_80:\n      dup3\n      dup1\n      add\n      0x01\n      add\n      dup6\n      sstore\n      dup3\n      iszero\n      tag_78\n      jumpi\n      swap2\n      dup3\n      add\n    tag_81:\n      dup3\n      dup2\n      gt\n      iszero\n      tag_82\n      jumpi\n      dup3\n      mload\n      dup3\n      sstore\n      swap2\n      0x20\n      add\n      swap2\n      swap1\n      0x01\n      add\n      swap1\n      jump(tag_81)\n    tag_82:\n    tag_78:\n      pop\n      swap1\n      pop\n      tag_83\n      swap2\n      swap1\n      tag_84\n      jump\t// in\n    tag_83:\n      pop\n      swap1\n      jump\t// out\n    tag_84:\n    tag_85:\n      dup1\n      dup3\n      gt\n      iszero\n      tag_86\n      jumpi\n      0x00\n      dup2\n      0x00\n      swap1\n      sstore\n      pop\n      0x01\n      add\n      jump(tag_85)\n    tag_86:\n      pop\n      swap1\n      jump\t// out\n        /* \"#utility.yul\":7:82   */\n    tag_87:\n        /* \"#utility.yul\":40:46   */\n      0x00\n        /* \"#utility.yul\":73:75   */\n      0x40\n        /* \"#utility.yul\":67:76   */\n      mload\n        /* \"#utility.yul\":57:76   */\n      swap1\n      pop\n        /* \"#utility.yul\":7:82   */\n      swap1\n      jump\t// out\n        /* \"#utility.yul\":88:205   */\n    tag_88:\n        /* \"#utility.yul\":197:198   */\n      0x00\n        /* \"#utility.yul\":194:195   */\n      dup1\n        /* \"#utility.yul\":187:199   */\n      revert\n        /* \"#utility.yul\":211:328   */\n    tag_89:\n        /* \"#utility.yul\":320:321   */\n      0x00\n        /* \"#utility.yul\":317:318   */\n      dup1\n        /* \"#utility.yul\":310:322   */\n      revert\n        /* \"#utility.yul\":334:460   */\n    tag_90:\n        /* \"#utility.yul\":371:378   */\n      0x00\n        /* \"#utility.yul\":411:453   */\n      0xffffffffffffffffffffffffffffffffffffffff\n        /* \"#utility.yul\":404:409   */\n      dup3\n        /* \"#utility.yul\":400:454   */\n      and\n        /* \"#utility.yul\":389:454   */\n      swap1\n      pop\n        /* \"#utility.yul\":334:460   */\n      swap2\n      swap1\n      pop\n      jump\t// out\n        /* \"#utility.yul\":466:562   */\n    tag_91:\n        /* \"#utility.yul\":503:510   */\n      0x00\n        /* \"#utility.yul\":532:556   */\n      tag_124\n        /* \"#utility.yul\":550:555   */\n      dup3\n        /* \"#utility.yul\":532:556   */\n      tag_90\n      jump\t// in\n    tag_124:\n        /* \"#utility.yul\":521:556   */\n      swap1\n      pop\n        /* \"#utility.yul\":466:562   */\n      swap2\n      swap1\n      pop\n      jump\t// out\n        /* \"#utility.yul\":568:690   */\n    tag_92:\n        /* \"#utility.yul\":641:665   */\n      tag_126\n        /* \"#utility.yul\":659:664   */\n      dup2\n        /* \"#utility.yul\":641:665   */\n      tag_91\n      jump\t// in\n    tag_126:\n        /* \"#utility.yul\":634:639   */\n      dup2\n        /* \"#utility.yul\":631:666   */\n      eq\n        /* \"#utility.yul\":621:684   */\n      tag_127\n      jumpi\n        /* \"#utility.yul\":680:681   */\n      0x00\n        /* \"#utility.yul\":677:678   */\n      dup1\n        /* \"#utility.yul\":670:682   */\n      revert\n        /* \"#utility.yul\":621:684   */\n    tag_127:\n        /* \"#utility.yul\":568:690   */\n      pop\n      jump\t// out\n        /* \"#utility.yul\":696:835   */\n    tag_93:\n        /* \"#utility.yul\":742:747   */\n      0x00\n        /* \"#utility.yul\":780:786   */\n      dup2\n        /* \"#utility.yul\":767:787   */\n      calldataload\n        /* \"#utility.yul\":758:787   */\n      swap1\n      pop\n        /* \"#utility.yul\":796:829   */\n      tag_129\n        /* \"#utility.yul\":823:828   */\n      dup2\n        /* \"#utility.yul\":796:829   */\n      tag_92\n      jump\t// in\n    tag_129:\n        /* \"#utility.yul\":696:835   */\n      swap3\n      swap2\n      pop\n      pop\n      jump\t// out\n        /* \"#utility.yul\":841:1170   */\n    tag_14:\n        /* \"#utility.yul\":900:906   */\n      0x00\n        /* \"#utility.yul\":949:951   */\n      0x20\n        /* \"#utility.yul\":937:946   */\n      dup3\n        /* \"#utility.yul\":928:935   */\n      dup5\n        /* \"#utility.yul\":924:947   */\n      sub\n        /* \"#utility.yul\":920:952   */\n      slt\n        /* \"#utility.yul\":917:1036   */\n      iszero\n      tag_131\n      jumpi\n        /* \"#utility.yul\":955:1034   */\n      tag_132\n      tag_88\n      jump\t// in\n    tag_132:\n        /* \"#utility.yul\":917:1036   */\n    tag_131:\n        /* \"#utility.yul\":1075:1076   */\n      0x00\n        /* \"#utility.yul\":1100:1153   */\n      tag_133\n        /* \"#utility.yul\":1145:1152   */\n      dup5\n        /* \"#utility.yul\":1136:1142   */\n      dup3\n        /* \"#utility.yul\":1125:1134   */\n      dup6\n        /* \"#utility.yul\":1121:1143   */\n      add\n        /* \"#utility.yul\":1100:1153   */\n      tag_93\n      jump\t// in\n    tag_133:\n        /* \"#utility.yul\":1090:1153   */\n      swap2\n      pop\n        /* \"#utility.yul\":1046:1163   */\n      pop\n        /* \"#utility.yul\":841:1170   */\n      swap3\n      swap2\n      pop\n      pop\n      jump\t// out\n        /* \"#utility.yul\":1176:1266   */\n    tag_94:\n        /* \"#utility.yul\":1210:1217   */\n      0x00\n        /* \"#utility.yul\":1253:1258   */\n      dup2\n        /* \"#utility.yul\":1246:1259   */\n      iszero\n        /* \"#utility.yul\":1239:1260   */\n      iszero\n        /* \"#utility.yul\":1228:1260   */\n      swap1\n      pop\n        /* \"#utility.yul\":1176:1266   */\n      swap2\n      swap1\n      pop\n      jump\t// out\n        /* \"#utility.yul\":1272:1381   */\n    tag_95:\n        /* \"#utility.yul\":1353:1374   */\n      tag_136\n        /* \"#utility.yul\":1368:1373   */\n      dup2\n        /* \"#utility.yul\":1353:1374   */\n      tag_94\n      jump\t// in\n    tag_136:\n        /* \"#utility.yul\":1348:1351   */\n      dup3\n        /* \"#utility.yul\":1341:1375   */\n      mstore\n        /* \"#utility.yul\":1272:1381   */\n      pop\n      pop\n      jump\t// out\n        /* \"#utility.yul\":1387:1597   */\n    tag_17:\n        /* \"#utility.yul\":1474:1478   */\n      0x00\n        /* \"#utility.yul\":1512:1514   */\n      0x20\n        /* \"#utility.yul\":1501:1510   */\n      dup3\n        /* \"#utility.yul\":1497:1515   */\n      add\n        /* \"#utility.yul\":1489:1515   */\n      swap1\n      pop\n        /* \"#utility.yul\":1525:1590   */\n      tag_138\n        /* \"#utility.yul\":1587:1588   */\n      0x00\n        /* \"#utility.yul\":1576:1585   */\n      dup4\n        /* \"#utility.yul\":1572:1589   */\n      add\n        /* \"#utility.yul\":1563:1569   */\n      dup5\n        /* \"#utility.yul\":1525:1590   */\n      tag_95\n      jump\t// in\n    tag_138:\n        /* \"#utility.yul\":1387:1597   */\n      swap3\n      swap2\n      pop\n      pop\n      jump\t// out\n        /* \"#utility.yul\":1603:1721   */\n    tag_96:\n        /* \"#utility.yul\":1690:1714   */\n      tag_140\n        /* \"#utility.yul\":1708:1713   */\n      dup2\n        /* \"#utility.yul\":1690:1714   */\n      tag_91\n      jump\t// in\n    tag_140:\n        /* \"#utility.yul\":1685:1688   */\n      dup3\n        /* \"#utility.yul\":1678:1715   */\n      mstore\n        /* \"#utility.yul\":1603:1721   */\n      pop\n      pop\n      jump\t// out\n        /* \"#utility.yul\":1727:1949   */\n    tag_22:\n        /* \"#utility.yul\":1820:1824   */\n      0x00\n        /* \"#utility.yul\":1858:1860   */\n      0x20\n        /* \"#utility.yul\":1847:1856   */\n      dup3\n        /* \"#utility.yul\":1843:1861   */\n      add\n        /* \"#utility.yul\":1835:1861   */\n      swap1\n      pop\n        /* \"#utility.yul\":1871:1942   */\n      tag_142\n        /* \"#utility.yul\":1939:1940   */\n      0x00\n        /* \"#utility.yul\":1928:1937   */\n      dup4\n        /* \"#utility.yul\":1924:1941   */\n      add\n        /* \"#utility.yul\":1915:1921   */\n      dup5\n        /* \"#utility.yul\":1871:1942   */\n      tag_96\n      jump\t// in\n    tag_142:\n        /* \"#utility.yul\":1727:1949   */\n      swap3\n      swap2\n      pop\n      pop\n      jump\t// out\n        /* \"#utility.yul\":1955:2032   */\n    tag_97:\n        /* \"#utility.yul\":1992:1999   */\n      0x00\n        /* \"#utility.yul\":2021:2026   */\n      dup2\n        /* \"#utility.yul\":2010:2026   */\n      swap1\n      pop\n        /* \"#utility.yul\":1955:2032   */\n      swap2\n      swap1\n      pop\n      jump\t// out\n        /* \"#utility.yul\":2038:2160   */\n    tag_98:\n        /* \"#utility.yul\":2111:2135   */\n      tag_145\n        /* \"#utility.yul\":2129:2134   */\n      dup2\n        /* \"#utility.yul\":2111:2135   */\n      tag_97\n      jump\t// in\n    tag_145:\n        /* \"#utility.yul\":2104:2109   */\n      dup2\n        /* \"#utility.yul\":2101:2136   */\n      eq\n        /* \"#utility.yul\":2091:2154   */\n      tag_146\n      jumpi\n        /* \"#utility.yul\":2150:2151   */\n      0x00\n        /* \"#utility.yul\":2147:2148   */\n      dup1\n        /* \"#utility.yul\":2140:2152   */\n      revert\n        /* \"#utility.yul\":2091:2154   */\n    tag_146:\n        /* \"#utility.yul\":2038:2160   */\n      pop\n      jump\t// out\n        /* \"#utility.yul\":2166:2305   */\n    tag_99:\n        /* \"#utility.yul\":2212:2217   */\n      0x00\n        /* \"#utility.yul\":2250:2256   */\n      dup2\n        /* \"#utility.yul\":2237:2257   */\n      calldataload\n        /* \"#utility.yul\":2228:2257   */\n      swap1\n      pop\n        /* \"#utility.yul\":2266:2299   */\n      tag_148\n        /* \"#utility.yul\":2293:2298   */\n      dup2\n        /* \"#utility.yul\":2266:2299   */\n      tag_98\n      jump\t// in\n    tag_148:\n        /* \"#utility.yul\":2166:2305   */\n      swap3\n      swap2\n      pop\n      pop\n      jump\t// out\n        /* \"#utility.yul\":2311:2640   */\n    tag_26:\n        /* \"#utility.yul\":2370:2376   */\n      0x00\n        /* \"#utility.yul\":2419:2421   */\n      0x20\n        /* \"#utility.yul\":2407:2416   */\n      dup3\n        /* \"#utility.yul\":2398:2405   */\n      dup5\n        /* \"#utility.yul\":2394:2417   */\n      sub\n        /* \"#utility.yul\":2390:2422   */\n      slt\n        /* \"#utility.yul\":2387:2506   */\n      iszero\n      tag_150\n      jumpi\n        /* \"#utility.yul\":2425:2504   */\n      tag_151\n      tag_88\n      jump\t// in\n    tag_151:\n        /* \"#utility.yul\":2387:2506   */\n    tag_150:\n        /* \"#utility.yul\":2545:2546   */\n      0x00\n        /* \"#utility.yul\":2570:2623   */\n      tag_152\n        /* \"#utility.yul\":2615:2622   */\n      dup5\n        /* \"#utility.yul\":2606:2612   */\n      dup3\n        /* \"#utility.yul\":2595:2604   */\n      dup6\n        /* \"#utility.yul\":2591:2613   */\n      add\n        /* \"#utility.yul\":2570:2623   */\n      tag_99\n      jump\t// in\n    tag_152:\n        /* \"#utility.yul\":2560:2623   */\n      swap2\n      pop\n        /* \"#utility.yul\":2516:2633   */\n      pop\n        /* \"#utility.yul\":2311:2640   */\n      swap3\n      swap2\n      pop\n      pop\n      jump\t// out\n        /* \"#utility.yul\":2646:2745   */\n    tag_100:\n        /* \"#utility.yul\":2698:2704   */\n      0x00\n        /* \"#utility.yul\":2732:2737   */\n      dup2\n        /* \"#utility.yul\":2726:2738   */\n      mload\n        /* \"#utility.yul\":2716:2738   */\n      swap1\n      pop\n        /* \"#utility.yul\":2646:2745   */\n      swap2\n      swap1\n      pop\n      jump\t// out\n        /* \"#utility.yul\":2751:2920   */\n    tag_101:\n        /* \"#utility.yul\":2835:2846   */\n      0x00\n        /* \"#utility.yul\":2869:2875   */\n      dup3\n        /* \"#utility.yul\":2864:2867   */\n      dup3\n        /* \"#utility.yul\":2857:2876   */\n      mstore\n        /* \"#utility.yul\":2909:2913   */\n      0x20\n        /* \"#utility.yul\":2904:2907   */\n      dup3\n        /* \"#utility.yul\":2900:2914   */\n      add\n        /* \"#utility.yul\":2885:2914   */\n      swap1\n      pop\n        /* \"#utility.yul\":2751:2920   */\n      swap3\n      swap2\n      pop\n      pop\n      jump\t// out\n        /* \"#utility.yul\":2926:3233   */\n    tag_102:\n        /* \"#utility.yul\":2994:2995   */\n      0x00\n        /* \"#utility.yul\":3004:3117   */\n    tag_156:\n        /* \"#utility.yul\":3018:3024   */\n      dup4\n        /* \"#utility.yul\":3015:3016   */\n      dup2\n        /* \"#utility.yul\":3012:3025   */\n      lt\n        /* \"#utility.yul\":3004:3117   */\n      iszero\n      tag_158\n      jumpi\n        /* \"#utility.yul\":3103:3104   */\n      dup1\n        /* \"#utility.yul\":3098:3101   */\n      dup3\n        /* \"#utility.yul\":3094:3105   */\n      add\n        /* \"#utility.yul\":3088:3106   */\n      mload\n        /* \"#utility.yul\":3084:3085   */\n      dup2\n        /* \"#utility.yul\":3079:3082   */\n      dup5\n        /* \"#utility.yul\":3075:3086   */\n      add\n        /* \"#utility.yul\":3068:3107   */\n      mstore\n        /* \"#utility.yul\":3040:3042   */\n      0x20\n        /* \"#utility.yul\":3037:3038   */\n      dup2\n        /* \"#utility.yul\":3033:3043   */\n      add\n        /* \"#utility.yul\":3028:3043   */\n      swap1\n      pop\n        /* \"#utility.yul\":3004:3117   */\n      jump(tag_156)\n    tag_158:\n        /* \"#utility.yul\":3135:3141   */\n      dup4\n        /* \"#utility.yul\":3132:3133   */\n      dup2\n        /* \"#utility.yul\":3129:3142   */\n      gt\n        /* \"#utility.yul\":3126:3227   */\n      iszero\n      tag_159\n      jumpi\n        /* \"#utility.yul\":3215:3216   */\n      0x00\n        /* \"#utility.yul\":3206:3212   */\n      dup5\n        /* \"#utility.yul\":3201:3204   */\n      dup5\n        /* \"#utility.yul\":3197:3213   */\n      add\n        /* \"#utility.yul\":3190:3217   */\n      mstore\n        /* \"#utility.yul\":3126:3227   */\n    tag_159:\n        /* \"#utility.yul\":2975:3233   */\n      pop\n        /* \"#utility.yul\":2926:3233   */\n      pop\n      pop\n      pop\n      jump\t// out\n        /* \"#utility.yul\":3239:3341   */\n    tag_103:\n        /* \"#utility.yul\":3280:3286   */\n      0x00\n        /* \"#utility.yul\":3331:3333   */\n      0x1f\n        /* \"#utility.yul\":3327:3334   */\n      not\n        /* \"#utility.yul\":3322:3324   */\n      0x1f\n        /* \"#utility.yul\":3315:3320   */\n      dup4\n        /* \"#utility.yul\":3311:3325   */\n      add\n        /* \"#utility.yul\":3307:3335   */\n      and\n        /* \"#utility.yul\":3297:3335   */\n      swap1\n      pop\n        /* \"#utility.yul\":3239:3341   */\n      swap2\n      swap1\n      pop\n      jump\t// out\n        /* \"#utility.yul\":3347:3711   */\n    tag_104:\n        /* \"#utility.yul\":3435:3438   */\n      0x00\n        /* \"#utility.yul\":3463:3502   */\n      tag_162\n        /* \"#utility.yul\":3496:3501   */\n      dup3\n        /* \"#utility.yul\":3463:3502   */\n      tag_100\n      jump\t// in\n    tag_162:\n        /* \"#utility.yul\":3518:3589   */\n      tag_163\n        /* \"#utility.yul\":3582:3588   */\n      dup2\n        /* \"#utility.yul\":3577:3580   */\n      dup6\n        /* \"#utility.yul\":3518:3589   */\n      tag_101\n      jump\t// in\n    tag_163:\n        /* \"#utility.yul\":3511:3589   */\n      swap4\n      pop\n        /* \"#utility.yul\":3598:3650   */\n      tag_164\n        /* \"#utility.yul\":3643:3649   */\n      dup2\n        /* \"#utility.yul\":3638:3641   */\n      dup6\n        /* \"#utility.yul\":3631:3635   */\n      0x20\n        /* \"#utility.yul\":3624:3629   */\n      dup7\n        /* \"#utility.yul\":3620:3636   */\n      add\n        /* \"#utility.yul\":3598:3650   */\n      tag_102\n      jump\t// in\n    tag_164:\n        /* \"#utility.yul\":3675:3704   */\n      tag_165\n        /* \"#utility.yul\":3697:3703   */\n      dup2\n        /* \"#utility.yul\":3675:3704   */\n      tag_103\n      jump\t// in\n    tag_165:\n        /* \"#utility.yul\":3670:3673   */\n      dup5\n        /* \"#utility.yul\":3666:3705   */\n      add\n        /* \"#utility.yul\":3659:3705   */\n      swap2\n      pop\n        /* \"#utility.yul\":3439:3711   */\n      pop\n        /* \"#utility.yul\":3347:3711   */\n      swap3\n      swap2\n      pop\n      pop\n      jump\t// out\n        /* \"#utility.yul\":3717:3835   */\n    tag_105:\n        /* \"#utility.yul\":3804:3828   */\n      tag_167\n        /* \"#utility.yul\":3822:3827   */\n      dup2\n        /* \"#utility.yul\":3804:3828   */\n      tag_97\n      jump\t// in\n    tag_167:\n        /* \"#utility.yul\":3799:3802   */\n      dup3\n        /* \"#utility.yul\":3792:3829   */\n      mstore\n        /* \"#utility.yul\":3717:3835   */\n      pop\n      pop\n      jump\t// out\n        /* \"#utility.yul\":3841:4584   */\n    tag_29:\n        /* \"#utility.yul\":4060:4064   */\n      0x00\n        /* \"#utility.yul\":4098:4101   */\n      0xa0\n        /* \"#utility.yul\":4087:4096   */\n      dup3\n        /* \"#utility.yul\":4083:4102   */\n      add\n        /* \"#utility.yul\":4075:4102   */\n      swap1\n      pop\n        /* \"#utility.yul\":4148:4157   */\n      dup2\n        /* \"#utility.yul\":4142:4146   */\n      dup2\n        /* \"#utility.yul\":4138:4158   */\n      sub\n        /* \"#utility.yul\":4134:4135   */\n      0x00\n        /* \"#utility.yul\":4123:4132   */\n      dup4\n        /* \"#utility.yul\":4119:4136   */\n      add\n        /* \"#utility.yul\":4112:4159   */\n      mstore\n        /* \"#utility.yul\":4176:4254   */\n      tag_169\n        /* \"#utility.yul\":4249:4253   */\n      dup2\n        /* \"#utility.yul\":4240:4246   */\n      dup9\n        /* \"#utility.yul\":4176:4254   */\n      tag_104\n      jump\t// in\n    tag_169:\n        /* \"#utility.yul\":4168:4254   */\n      swap1\n      pop\n        /* \"#utility.yul\":4264:4336   */\n      tag_170\n        /* \"#utility.yul\":4332:4334   */\n      0x20\n        /* \"#utility.yul\":4321:4330   */\n      dup4\n        /* \"#utility.yul\":4317:4335   */\n      add\n        /* \"#utility.yul\":4308:4314   */\n      dup8\n        /* \"#utility.yul\":4264:4336   */\n      tag_105\n      jump\t// in\n    tag_170:\n        /* \"#utility.yul\":4346:4418   */\n      tag_171\n        /* \"#utility.yul\":4414:4416   */\n      0x40\n        /* \"#utility.yul\":4403:4412   */\n      dup4\n        /* \"#utility.yul\":4399:4417   */\n      add\n        /* \"#utility.yul\":4390:4396   */\n      dup7\n        /* \"#utility.yul\":4346:4418   */\n      tag_96\n      jump\t// in\n    tag_171:\n        /* \"#utility.yul\":4428:4494   */\n      tag_172\n        /* \"#utility.yul\":4490:4492   */\n      0x60\n        /* \"#utility.yul\":4479:4488   */\n      dup4\n        /* \"#utility.yul\":4475:4493   */\n      add\n        /* \"#utility.yul\":4466:4472   */\n      dup6\n        /* \"#utility.yul\":4428:4494   */\n      tag_95\n      jump\t// in\n    tag_172:\n        /* \"#utility.yul\":4504:4577   */\n      tag_173\n        /* \"#utility.yul\":4572:4575   */\n      0x80\n        /* \"#utility.yul\":4561:4570   */\n      dup4\n        /* \"#utility.yul\":4557:4576   */\n      add\n        /* \"#utility.yul\":4548:4554   */\n      dup5\n        /* \"#utility.yul\":4504:4577   */\n      tag_105\n      jump\t// in\n    tag_173:\n        /* \"#utility.yul\":3841:4584   */\n      swap7\n      swap6\n      pop\n      pop\n      pop\n      pop\n      pop\n      pop\n      jump\t// out\n        /* \"#utility.yul\":4590:4707   */\n    tag_106:\n        /* \"#utility.yul\":4699:4700   */\n      0x00\n        /* \"#utility.yul\":4696:4697   */\n      dup1\n        /* \"#utility.yul\":4689:4701   */\n      revert\n        /* \"#utility.yul\":4713:4830   */\n    tag_107:\n        /* \"#utility.yul\":4822:4823   */\n      0x00\n        /* \"#utility.yul\":4819:4820   */\n      dup1\n        /* \"#utility.yul\":4812:4824   */\n      revert\n        /* \"#utility.yul\":4836:5016   */\n    tag_108:\n        /* \"#utility.yul\":4884:4961   */\n      0x4e487b7100000000000000000000000000000000000000000000000000000000\n        /* \"#utility.yul\":4881:4882   */\n      0x00\n        /* \"#utility.yul\":4874:4962   */\n      mstore\n        /* \"#utility.yul\":4981:4985   */\n      0x41\n        /* \"#utility.yul\":4978:4979   */\n      0x04\n        /* \"#utility.yul\":4971:4986   */\n      mstore\n        /* \"#utility.yul\":5005:5009   */\n      0x24\n        /* \"#utility.yul\":5002:5003   */\n      0x00\n        /* \"#utility.yul\":4995:5010   */\n      revert\n        /* \"#utility.yul\":5022:5303   */\n    tag_109:\n        /* \"#utility.yul\":5105:5132   */\n      tag_178\n        /* \"#utility.yul\":5127:5131   */\n      dup3\n        /* \"#utility.yul\":5105:5132   */\n      tag_103\n      jump\t// in\n    tag_178:\n        /* \"#utility.yul\":5097:5103   */\n      dup2\n        /* \"#utility.yul\":5093:5133   */\n      add\n        /* \"#utility.yul\":5235:5241   */\n      dup2\n        /* \"#utility.yul\":5223:5233   */\n      dup2\n        /* \"#utility.yul\":5220:5242   */\n      lt\n        /* \"#utility.yul\":5199:5217   */\n      0xffffffffffffffff\n        /* \"#utility.yul\":5187:5197   */\n      dup3\n        /* \"#utility.yul\":5184:5218   */\n      gt\n        /* \"#utility.yul\":5181:5243   */\n      or\n        /* \"#utility.yul\":5178:5266   */\n      iszero\n      tag_179\n      jumpi\n        /* \"#utility.yul\":5246:5264   */\n      tag_180\n      tag_108\n      jump\t// in\n    tag_180:\n        /* \"#utility.yul\":5178:5266   */\n    tag_179:\n        /* \"#utility.yul\":5286:5296   */\n      dup1\n        /* \"#utility.yul\":5282:5284   */\n      0x40\n        /* \"#utility.yul\":5275:5297   */\n      mstore\n        /* \"#utility.yul\":5065:5303   */\n      pop\n        /* \"#utility.yul\":5022:5303   */\n      pop\n      pop\n      jump\t// out\n        /* \"#utility.yul\":5309:5438   */\n    tag_110:\n        /* \"#utility.yul\":5343:5349   */\n      0x00\n        /* \"#utility.yul\":5370:5390   */\n      tag_182\n      tag_87\n      jump\t// in\n    tag_182:\n        /* \"#utility.yul\":5360:5390   */\n      swap1\n      pop\n        /* \"#utility.yul\":5399:5432   */\n      tag_183\n        /* \"#utility.yul\":5427:5431   */\n      dup3\n        /* \"#utility.yul\":5419:5425   */\n      dup3\n        /* \"#utility.yul\":5399:5432   */\n      tag_109\n      jump\t// in\n    tag_183:\n        /* \"#utility.yul\":5309:5438   */\n      swap2\n      swap1\n      pop\n      jump\t// out\n        /* \"#utility.yul\":5444:5752   */\n    tag_111:\n        /* \"#utility.yul\":5506:5510   */\n      0x00\n        /* \"#utility.yul\":5596:5614   */\n      0xffffffffffffffff\n        /* \"#utility.yul\":5588:5594   */\n      dup3\n        /* \"#utility.yul\":5585:5615   */\n      gt\n        /* \"#utility.yul\":5582:5638   */\n      iszero\n      tag_185\n      jumpi\n        /* \"#utility.yul\":5618:5636   */\n      tag_186\n      tag_108\n      jump\t// in\n    tag_186:\n        /* \"#utility.yul\":5582:5638   */\n    tag_185:\n        /* \"#utility.yul\":5656:5685   */\n      tag_187\n        /* \"#utility.yul\":5678:5684   */\n      dup3\n        /* \"#utility.yul\":5656:5685   */\n      tag_103\n      jump\t// in\n    tag_187:\n        /* \"#utility.yul\":5648:5685   */\n      swap1\n      pop\n        /* \"#utility.yul\":5740:5744   */\n      0x20\n        /* \"#utility.yul\":5734:5738   */\n      dup2\n        /* \"#utility.yul\":5730:5745   */\n      add\n        /* \"#utility.yul\":5722:5745   */\n      swap1\n      pop\n        /* \"#utility.yul\":5444:5752   */\n      swap2\n      swap1\n      pop\n      jump\t// out\n        /* \"#utility.yul\":5758:5912   */\n    tag_112:\n        /* \"#utility.yul\":5842:5848   */\n      dup3\n        /* \"#utility.yul\":5837:5840   */\n      dup2\n        /* \"#utility.yul\":5832:5835   */\n      dup4\n        /* \"#utility.yul\":5819:5849   */\n      calldatacopy\n        /* \"#utility.yul\":5904:5905   */\n      0x00\n        /* \"#utility.yul\":5895:5901   */\n      dup4\n        /* \"#utility.yul\":5890:5893   */\n      dup4\n        /* \"#utility.yul\":5886:5902   */\n      add\n        /* \"#utility.yul\":5879:5906   */\n      mstore\n        /* \"#utility.yul\":5758:5912   */\n      pop\n      pop\n      pop\n      jump\t// out\n        /* \"#utility.yul\":5918:6330   */\n    tag_113:\n        /* \"#utility.yul\":5996:6001   */\n      0x00\n        /* \"#utility.yul\":6021:6087   */\n      tag_190\n        /* \"#utility.yul\":6037:6086   */\n      tag_191\n        /* \"#utility.yul\":6079:6085   */\n      dup5\n        /* \"#utility.yul\":6037:6086   */\n      tag_111\n      jump\t// in\n    tag_191:\n        /* \"#utility.yul\":6021:6087   */\n      tag_110\n      jump\t// in\n    tag_190:\n        /* \"#utility.yul\":6012:6087   */\n      swap1\n      pop\n        /* \"#utility.yul\":6110:6116   */\n      dup3\n        /* \"#utility.yul\":6103:6108   */\n      dup2\n        /* \"#utility.yul\":6096:6117   */\n      mstore\n        /* \"#utility.yul\":6148:6152   */\n      0x20\n        /* \"#utility.yul\":6141:6146   */\n      dup2\n        /* \"#utility.yul\":6137:6153   */\n      add\n        /* \"#utility.yul\":6186:6189   */\n      dup5\n        /* \"#utility.yul\":6177:6183   */\n      dup5\n        /* \"#utility.yul\":6172:6175   */\n      dup5\n        /* \"#utility.yul\":6168:6184   */\n      add\n        /* \"#utility.yul\":6165:6190   */\n      gt\n        /* \"#utility.yul\":6162:6274   */\n      iszero\n      tag_192\n      jumpi\n        /* \"#utility.yul\":6193:6272   */\n      tag_193\n      tag_107\n      jump\t// in\n    tag_193:\n        /* \"#utility.yul\":6162:6274   */\n    tag_192:\n        /* \"#utility.yul\":6283:6324   */\n      tag_194\n        /* \"#utility.yul\":6317:6323   */\n      dup5\n        /* \"#utility.yul\":6312:6315   */\n      dup3\n        /* \"#utility.yul\":6307:6310   */\n      dup6\n        /* \"#utility.yul\":6283:6324   */\n      tag_112\n      jump\t// in\n    tag_194:\n        /* \"#utility.yul\":6002:6330   */\n      pop\n        /* \"#utility.yul\":5918:6330   */\n      swap4\n      swap3\n      pop\n      pop\n      pop\n      jump\t// out\n        /* \"#utility.yul\":6350:6690   */\n    tag_114:\n        /* \"#utility.yul\":6406:6411   */\n      0x00\n        /* \"#utility.yul\":6455:6458   */\n      dup3\n        /* \"#utility.yul\":6448:6452   */\n      0x1f\n        /* \"#utility.yul\":6440:6446   */\n      dup4\n        /* \"#utility.yul\":6436:6453   */\n      add\n        /* \"#utility.yul\":6432:6459   */\n      slt\n        /* \"#utility.yul\":6422:6544   */\n      tag_196\n      jumpi\n        /* \"#utility.yul\":6463:6542   */\n      tag_197\n      tag_106\n      jump\t// in\n    tag_197:\n        /* \"#utility.yul\":6422:6544   */\n    tag_196:\n        /* \"#utility.yul\":6580:6586   */\n      dup2\n        /* \"#utility.yul\":6567:6587   */\n      calldataload\n        /* \"#utility.yul\":6605:6684   */\n      tag_198\n        /* \"#utility.yul\":6680:6683   */\n      dup5\n        /* \"#utility.yul\":6672:6678   */\n      dup3\n        /* \"#utility.yul\":6665:6669   */\n      0x20\n        /* \"#utility.yul\":6657:6663   */\n      dup7\n        /* \"#utility.yul\":6653:6670   */\n      add\n        /* \"#utility.yul\":6605:6684   */\n      tag_113\n      jump\t// in\n    tag_198:\n        /* \"#utility.yul\":6596:6684   */\n      swap2\n      pop\n        /* \"#utility.yul\":6412:6690   */\n      pop\n        /* \"#utility.yul\":6350:6690   */\n      swap3\n      swap2\n      pop\n      pop\n      jump\t// out\n        /* \"#utility.yul\":6696:7495   */\n    tag_33:\n        /* \"#utility.yul\":6783:6789   */\n      0x00\n        /* \"#utility.yul\":6791:6797   */\n      dup1\n        /* \"#utility.yul\":6799:6805   */\n      0x00\n        /* \"#utility.yul\":6848:6850   */\n      0x60\n        /* \"#utility.yul\":6836:6845   */\n      dup5\n        /* \"#utility.yul\":6827:6834   */\n      dup7\n        /* \"#utility.yul\":6823:6846   */\n      sub\n        /* \"#utility.yul\":6819:6851   */\n      slt\n        /* \"#utility.yul\":6816:6935   */\n      iszero\n      tag_200\n      jumpi\n        /* \"#utility.yul\":6854:6933   */\n      tag_201\n      tag_88\n      jump\t// in\n    tag_201:\n        /* \"#utility.yul\":6816:6935   */\n    tag_200:\n        /* \"#utility.yul\":7002:7003   */\n      0x00\n        /* \"#utility.yul\":6991:7000   */\n      dup5\n        /* \"#utility.yul\":6987:7004   */\n      add\n        /* \"#utility.yul\":6974:7005   */\n      calldataload\n        /* \"#utility.yul\":7032:7050   */\n      0xffffffffffffffff\n        /* \"#utility.yul\":7024:7030   */\n      dup2\n        /* \"#utility.yul\":7021:7051   */\n      gt\n        /* \"#utility.yul\":7018:7135   */\n      iszero\n      tag_202\n      jumpi\n        /* \"#utility.yul\":7054:7133   */\n      tag_203\n      tag_89\n      jump\t// in\n    tag_203:\n        /* \"#utility.yul\":7018:7135   */\n    tag_202:\n        /* \"#utility.yul\":7159:7222   */\n      tag_204\n        /* \"#utility.yul\":7214:7221   */\n      dup7\n        /* \"#utility.yul\":7205:7211   */\n      dup3\n        /* \"#utility.yul\":7194:7203   */\n      dup8\n        /* \"#utility.yul\":7190:7212   */\n      add\n        /* \"#utility.yul\":7159:7222   */\n      tag_114\n      jump\t// in\n    tag_204:\n        /* \"#utility.yul\":7149:7222   */\n      swap4\n      pop\n        /* \"#utility.yul\":6945:7232   */\n      pop\n        /* \"#utility.yul\":7271:7273   */\n      0x20\n        /* \"#utility.yul\":7297:7350   */\n      tag_205\n        /* \"#utility.yul\":7342:7349   */\n      dup7\n        /* \"#utility.yul\":7333:7339   */\n      dup3\n        /* \"#utility.yul\":7322:7331   */\n      dup8\n        /* \"#utility.yul\":7318:7340   */\n      add\n        /* \"#utility.yul\":7297:7350   */\n      tag_99\n      jump\t// in\n    tag_205:\n        /* \"#utility.yul\":7287:7350   */\n      swap3\n      pop\n        /* \"#utility.yul\":7242:7360   */\n      pop\n        /* \"#utility.yul\":7399:7401   */\n      0x40\n        /* \"#utility.yul\":7425:7478   */\n      tag_206\n        /* \"#utility.yul\":7470:7477   */\n      dup7\n        /* \"#utility.yul\":7461:7467   */\n      dup3\n        /* \"#utility.yul\":7450:7459   */\n      dup8\n        /* \"#utility.yul\":7446:7468   */\n      add\n        /* \"#utility.yul\":7425:7478   */\n      tag_93\n      jump\t// in\n    tag_206:\n        /* \"#utility.yul\":7415:7478   */\n      swap2\n      pop\n        /* \"#utility.yul\":7370:7488   */\n      pop\n        /* \"#utility.yul\":6696:7495   */\n      swap3\n      pop\n      swap3\n      pop\n      swap3\n      jump\t// out\n        /* \"#utility.yul\":7501:7723   */\n    tag_39:\n        /* \"#utility.yul\":7594:7598   */\n      0x00\n        /* \"#utility.yul\":7632:7634   */\n      0x20\n        /* \"#utility.yul\":7621:7630   */\n      dup3\n        /* \"#utility.yul\":7617:7635   */\n      add\n        /* \"#utility.yul\":7609:7635   */\n      swap1\n      pop\n        /* \"#utility.yul\":7645:7716   */\n      tag_208\n        /* \"#utility.yul\":7713:7714   */\n      0x00\n        /* \"#utility.yul\":7702:7711   */\n      dup4\n        /* \"#utility.yul\":7698:7715   */\n      add\n        /* \"#utility.yul\":7689:7695   */\n      dup5\n        /* \"#utility.yul\":7645:7716   */\n      tag_105\n      jump\t// in\n    tag_208:\n        /* \"#utility.yul\":7501:7723   */\n      swap3\n      swap2\n      pop\n      pop\n      jump\t// out\n        /* \"#utility.yul\":7729:7909   */\n    tag_115:\n        /* \"#utility.yul\":7777:7854   */\n      0x4e487b7100000000000000000000000000000000000000000000000000000000\n        /* \"#utility.yul\":7774:7775   */\n      0x00\n        /* \"#utility.yul\":7767:7855   */\n      mstore\n        /* \"#utility.yul\":7874:7878   */\n      0x22\n        /* \"#utility.yul\":7871:7872   */\n      0x04\n        /* \"#utility.yul\":7864:7879   */\n      mstore\n        /* \"#utility.yul\":7898:7902   */\n      0x24\n        /* \"#utility.yul\":7895:7896   */\n      0x00\n        /* \"#utility.yul\":7888:7903   */\n      revert\n        /* \"#utility.yul\":7915:8235   */\n    tag_51:\n        /* \"#utility.yul\":7959:7965   */\n      0x00\n        /* \"#utility.yul\":7996:7997   */\n      0x02\n        /* \"#utility.yul\":7990:7994   */\n      dup3\n        /* \"#utility.yul\":7986:7998   */\n      div\n        /* \"#utility.yul\":7976:7998   */\n      swap1\n      pop\n        /* \"#utility.yul\":8043:8044   */\n      0x01\n        /* \"#utility.yul\":8037:8041   */\n      dup3\n        /* \"#utility.yul\":8033:8045   */\n      and\n        /* \"#utility.yul\":8064:8082   */\n      dup1\n        /* \"#utility.yul\":8054:8135   */\n      tag_211\n      jumpi\n        /* \"#utility.yul\":8120:8124   */\n      0x7f\n        /* \"#utility.yul\":8112:8118   */\n      dup3\n        /* \"#utility.yul\":8108:8125   */\n      and\n        /* \"#utility.yul\":8098:8125   */\n      swap2\n      pop\n        /* \"#utility.yul\":8054:8135   */\n    tag_211:\n        /* \"#utility.yul\":8182:8184   */\n      0x20\n        /* \"#utility.yul\":8174:8180   */\n      dup3\n        /* \"#utility.yul\":8171:8185   */\n      lt\n        /* \"#utility.yul\":8151:8169   */\n      dup2\n        /* \"#utility.yul\":8148:8186   */\n      eq\n        /* \"#utility.yul\":8145:8229   */\n      iszero\n      tag_212\n      jumpi\n        /* \"#utility.yul\":8201:8219   */\n      tag_213\n      tag_115\n      jump\t// in\n    tag_213:\n        /* \"#utility.yul\":8145:8229   */\n    tag_212:\n        /* \"#utility.yul\":7966:8235   */\n      pop\n        /* \"#utility.yul\":7915:8235   */\n      swap2\n      swap1\n      pop\n      jump\t// out\n        /* \"#utility.yul\":8241:8421   */\n    tag_116:\n        /* \"#utility.yul\":8289:8366   */\n      0x4e487b7100000000000000000000000000000000000000000000000000000000\n        /* \"#utility.yul\":8286:8287   */\n      0x00\n        /* \"#utility.yul\":8279:8367   */\n      mstore\n        /* \"#utility.yul\":8386:8390   */\n      0x11\n        /* \"#utility.yul\":8383:8384   */\n      0x04\n        /* \"#utility.yul\":8376:8391   */\n      mstore\n        /* \"#utility.yul\":8410:8414   */\n      0x24\n        /* \"#utility.yul\":8407:8408   */\n      0x00\n        /* \"#utility.yul\":8400:8415   */\n      revert\n        /* \"#utility.yul\":8427:8660   */\n    tag_60:\n        /* \"#utility.yul\":8466:8469   */\n      0x00\n        /* \"#utility.yul\":8489:8513   */\n      tag_216\n        /* \"#utility.yul\":8507:8512   */\n      dup3\n        /* \"#utility.yul\":8489:8513   */\n      tag_97\n      jump\t// in\n    tag_216:\n        /* \"#utility.yul\":8480:8513   */\n      swap2\n      pop\n        /* \"#utility.yul\":8535:8601   */\n      0xffffffffffffffffffffffffffffffffffffffffffffffffffffffffffffffff\n        /* \"#utility.yul\":8528:8533   */\n      dup3\n        /* \"#utility.yul\":8525:8602   */\n      eq\n        /* \"#utility.yul\":8522:8625   */\n      iszero\n      tag_217\n      jumpi\n        /* \"#utility.yul\":8605:8623   */\n      tag_218\n      tag_116\n      jump\t// in\n    tag_218:\n        /* \"#utility.yul\":8522:8625   */\n    tag_217:\n        /* \"#utility.yul\":8652:8653   */\n      0x01\n        /* \"#utility.yul\":8645:8650   */\n      dup3\n        /* \"#utility.yul\":8641:8654   */\n      add\n        /* \"#utility.yul\":8634:8654   */\n      swap1\n      pop\n        /* \"#utility.yul\":8427:8660   */\n      swap2\n      swap1\n      pop\n      jump\t// out\n        /* \"#utility.yul\":8666:8846   */\n    tag_117:\n        /* \"#utility.yul\":8714:8791   */\n      0x4e487b7100000000000000000000000000000000000000000000000000000000\n        /* \"#utility.yul\":8711:8712   */\n      0x00\n        /* \"#utility.yul\":8704:8792   */\n      mstore\n        /* \"#utility.yul\":8811:8815   */\n      0x12\n        /* \"#utility.yul\":8808:8809   */\n      0x04\n        /* \"#utility.yul\":8801:8816   */\n      mstore\n        /* \"#utility.yul\":8835:8839   */\n      0x24\n        /* \"#utility.yul\":8832:8833   */\n      0x00\n        /* \"#utility.yul\":8825:8840   */\n      revert\n        /* \"#utility.yul\":8852:9037   */\n    tag_73:\n        /* \"#utility.yul\":8892:8893   */\n      0x00\n        /* \"#utility.yul\":8909:8929   */\n      tag_221\n        /* \"#utility.yul\":8927:8928   */\n      dup3\n        /* \"#utility.yul\":8909:8929   */\n      tag_97\n      jump\t// in\n    tag_221:\n        /* \"#utility.yul\":8904:8929   */\n      swap2\n      pop\n        /* \"#utility.yul\":8943:8963   */\n      tag_222\n        /* \"#utility.yul\":8961:8962   */\n      dup4\n        /* \"#utility.yul\":8943:8963   */\n      tag_97\n      jump\t// in\n    tag_222:\n        /* \"#utility.yul\":8938:8963   */\n      swap3\n      pop\n        /* \"#utility.yul\":8982:8983   */\n      dup3\n        /* \"#utility.yul\":8972:9007   */\n      tag_223\n      jumpi\n        /* \"#utility.yul\":8987:9005   */\n      tag_224\n      tag_117\n      jump\t// in\n    tag_224:\n        /* \"#utility.yul\":8972:9007   */\n    tag_223:\n        /* \"#utility.yul\":9029:9030   */\n      dup3\n        /* \"#utility.yul\":9026:9027   */\n      dup3\n        /* \"#utility.yul\":9022:9031   */\n      div\n        /* \"#utility.yul\":9017:9031   */\n      swap1\n      pop\n        /* \"#utility.yul\":8852:9037   */\n      swap3\n      swap2\n      pop\n      pop\n      jump\t// out\n\n    auxdata: 0xa26469706673582212207944215835f11e525555a8c058a4ff2eeac2a0dcdc137d96c4ace50e51c90b4864736f6c634300080a0033\n}\n","bytecode":{"linkReferences":{},"object":"608060405260006005553480156200001657600080fd5b5060405162000e8238038062000e8283398181016040528101906200003c919062000131565b80600160006101000a81548173ffffffffffffffffffffffffffffffffffffffff021916908373ffffffffffffffffffffffffffffffffffffffff16021790555081600281905550505062000178565b600080fd5b6000819050919050565b620000a68162000091565b8114620000b257600080fd5b50565b600081519050620000c6816200009b565b92915050565b600073ffffffffffffffffffffffffffffffffffffffff82169050919050565b6000620000f982620000cc565b9050919050565b6200010b81620000ec565b81146200011757600080fd5b50565b6000815190506200012b8162000100565b92915050565b600080604083850312156200014b576200014a6200008c565b5b60006200015b85828601620000b5565b92505060206200016e858286016200011a565b9150509250929050565b610cfa80620001886000396000f3fe60806040526004361061007b5760003560e01c8063937e09b11161004e578063937e09b114610152578063d7bb99ba1461017d578063d7d1bbdb14610187578063e7b668b4146101b05761007b565b80630a14439114610080578063481c6a75146100bd57806381d12c58146100e85780638a9cfd5514610129575b600080fd5b34801561008c57600080fd5b506100a760048036038101906100a291906107da565b6101d9565b6040516100b49190610822565b60405180910390f35b3480156100c957600080fd5b506100d26101f9565b6040516100df919061084c565b60405180910390f35b3480156100f457600080fd5b5061010f600480360381019061010a919061089d565b61021f565b604051610120959493929190610972565b60405180910390f35b34801561013557600080fd5b50610150600480360381019061014b9190610b01565b61030a565b005b34801561015e57600080fd5b50610167610422565b6040516101749190610b70565b60405180910390f35b610185610428565b005b34801561019357600080fd5b506101ae60048036038101906101a9919061089d565b610490565b005b3480156101bc57600080fd5b506101d760048036038101906101d2919061089d565b6105e5565b005b60036020528060005260406000206000915054906101000a900460ff1681565b600160009054906101000a900473ffffffffffffffffffffffffffffffffffffffff1681565b600060205280600052604060002060009150905080600001805461024290610bba565b80601f016020809104026020016040519081016040528092919081815260200182805461026e90610bba565b80156102bb5780601f10610290576101008083540402835291602001916102bb565b820191906000526020600020905b81548152906001019060200180831161029e57829003601f168201915b5050505050908060010154908060020160009054906101000a900473ffffffffffffffffffffffffffffffffffffffff16908060020160149054906101000a900460ff16908060030154905085565b600160009054906101000a900473ffffffffffffffffffffffffffffffffffffffff1673ffffffffffffffffffffffffffffffffffffffff163373ffffffffffffffffffffffffffffffffffffffff161461036457600080fd5b60008060006004600081548092919061037c90610c1b565b9190505581526020019081526020016000209050838160000190805190602001906103a89291906106c5565b50828160010181905550818160020160006101000a81548173ffffffffffffffffffffffffffffffffffffffff021916908373ffffffffffffffffffffffffffffffffffffffff16021790555060008160020160146101000a81548160ff0219169083151502179055506000816003018190555050505050565b60025481565b600254341161043657600080fd5b6001600360003373ffffffffffffffffffffffffffffffffffffffff1673ffffffffffffffffffffffffffffffffffffffff16815260200190815260200160002060006101000a81548160ff021916908315150217905550565b60008060008381526020019081526020016000209050600360003373ffffffffffffffffffffffffffffffffffffffff1673ffffffffffffffffffffffffffffffffffffffff16815260200190815260200160002060009054906101000a900460ff166104fc57600080fd5b8060040160003373ffffffffffffffffffffffffffffffffffffffff1673ffffffffffffffffffffffffffffffffffffffff16815260200190815260200160002060009054906101000a900460ff161561055557600080fd5b60018160040160003373ffffffffffffffffffffffffffffffffffffffff1673ffffffffffffffffffffffffffffffffffffffff16815260200190815260200160002060006101000a81548160ff0219169083151502179055508060030160008154809291906105c490610c1b565b9190505550600560008154809291906105dc90610c1b565b91905055505050565b600080600083815260200190815260200160002090508060020160149054906101000a900460ff161561061757600080fd5b60026005546106269190610c93565b81600301541161063557600080fd5b8060020160009054906101000a900473ffffffffffffffffffffffffffffffffffffffff1673ffffffffffffffffffffffffffffffffffffffff166108fc82600101549081150290604051600060405180830381858888f193505050501580156106a3573d6000803e3d6000fd5b5060018160020160146101000a81548160ff0219169083151502179055505050565b8280546106d190610bba565b90600052602060002090601f0160209004810192826106f3576000855561073a565b82601f1061070c57805160ff191683800117855561073a565b8280016001018555821561073a579182015b8281111561073957825182559160200191906001019061071e565b5b509050610747919061074b565b5090565b5b8082111561076457600081600090555060010161074c565b5090565b6000604051905090565b600080fd5b600080fd5b600073ffffffffffffffffffffffffffffffffffffffff82169050919050565b60006107a78261077c565b9050919050565b6107b78161079c565b81146107c257600080fd5b50565b6000813590506107d4816107ae565b92915050565b6000602082840312156107f0576107ef610772565b5b60006107fe848285016107c5565b91505092915050565b60008115159050919050565b61081c81610807565b82525050565b60006020820190506108376000830184610813565b92915050565b6108468161079c565b82525050565b6000602082019050610861600083018461083d565b92915050565b6000819050919050565b61087a81610867565b811461088557600080fd5b50565b60008135905061089781610871565b92915050565b6000602082840312156108b3576108b2610772565b5b60006108c184828501610888565b91505092915050565b600081519050919050565b600082825260208201905092915050565b60005b838110156109045780820151818401526020810190506108e9565b83811115610913576000848401525b50505050565b6000601f19601f8301169050919050565b6000610935826108ca565b61093f81856108d5565b935061094f8185602086016108e6565b61095881610919565b840191505092915050565b61096c81610867565b82525050565b600060a082019050818103600083015261098c818861092a565b905061099b6020830187610963565b6109a8604083018661083d565b6109b56060830185610813565b6109c26080830184610963565b9695505050505050565b600080fd5b600080fd5b7f4e487b7100000000000000000000000000000000000000000000000000000000600052604160045260246000fd5b610a0e82610919565b810181811067ffffffffffffffff82111715610a2d57610a2c6109d6565b5b80604052505050565b6000610a40610768565b9050610a4c8282610a05565b919050565b600067ffffffffffffffff821115610a6c57610a6b6109d6565b5b610a7582610919565b9050602081019050919050565b82818337600083830152505050565b6000610aa4610a9f84610a51565b610a36565b905082815260208101848484011115610ac057610abf6109d1565b5b610acb848285610a82565b509392505050565b600082601f830112610ae857610ae76109cc565b5b8135610af8848260208601610a91565b91505092915050565b600080600060608486031215610b1a57610b19610772565b5b600084013567ffffffffffffffff811115610b3857610b37610777565b5b610b4486828701610ad3565b9350506020610b5586828701610888565b9250506040610b66868287016107c5565b9150509250925092565b6000602082019050610b856000830184610963565b92915050565b7f4e487b7100000000000000000000000000000000000000000000000000000000600052602260045260246000fd5b60006002820490506001821680610bd257607f821691505b60208210811415610be657610be5610b8b565b5b50919050565b7f4e487b7100000000000000000000000000000000000000000000000000000000600052601160045260246000fd5b6000610c2682610867565b91507fffffffffffffffffffffffffffffffffffffffffffffffffffffffffffffffff821415610c5957610c58610bec565b5b600182019050919050565b7f4e487b7100000000000000000000000000000000000000000000000000000000600052601260045260246000fd5b6000610c9e82610867565b9150610ca983610867565b925082610cb957610cb8610c64565b5b82820490509291505056fea26469706673582212207944215835f11e525555a8c058a4ff2eeac2a0dcdc137d96c4ace50e51c90b4864736f6c634300080a0033","opcodes":"PUSH1 0x80 PUSH1 0x40 MSTORE PUSH1 0x0 PUSH1 0x5 SSTORE CALLVALUE DUP1 ISZERO PUSH3 0x16 JUMPI PUSH1 0x0 DUP1 REVERT JUMPDEST POP PUSH1 0x40 MLOAD PUSH3 0xE82 CODESIZE SUB DUP1 PUSH3 0xE82 DUP4 CODECOPY DUP2 DUP2 ADD PUSH1 0x40 MSTORE DUP2 ADD SWAP1 PUSH3 0x3C SWAP2 SWAP1 PUSH3 0x131 JUMP JUMPDEST DUP1 PUSH1 0x1 PUSH1 0x0 PUSH2 0x100 EXP DUP2 SLOAD DUP2 PUSH20 0xFFFFFFFFFFFFFFFFFFFFFFFFFFFFFFFFFFFFFFFF MUL NOT AND SWAP1 DUP4 PUSH20 0xFFFFFFFFFFFFFFFFFFFFFFFFFFFFFFFFFFFFFFFF AND MUL OR SWAP1 SSTORE POP DUP2 PUSH1 0x2 DUP2 SWAP1 SSTORE POP POP POP PUSH3 0x178 JUMP JUMPDEST PUSH1 0x0 DUP1 REVERT JUMPDEST PUSH1 0x0 DUP2 SWAP1 POP SWAP2 SWAP1 POP JUMP JUMPDEST PUSH3 0xA6 DUP2 PUSH3 0x91 JUMP JUMPDEST DUP2 EQ PUSH3 0xB2 JUMPI PUSH1 0x0 DUP1 REVERT JUMPDEST POP JUMP JUMPDEST PUSH1 0x0 DUP2 MLOAD SWAP1 POP PUSH3 0xC6 DUP2 PUSH3 0x9B JUMP JUMPDEST SWAP3 SWAP2 POP POP JUMP JUMPDEST PUSH1 0x0 PUSH20 0xFFFFFFFFFFFFFFFFFFFFFFFFFFFFFFFFFFFFFFFF DUP3 AND SWAP1 POP SWAP2 SWAP1 POP JUMP JUMPDEST PUSH1 0x0 PUSH3 0xF9 DUP3 PUSH3 0xCC JUMP JUMPDEST SWAP1 POP SWAP2 SWAP1 POP JUMP JUMPDEST PUSH3 0x10B DUP2 PUSH3 0xEC JUMP JUMPDEST DUP2 EQ PUSH3 0x117 JUMPI PUSH1 0x0 DUP1 REVERT JUMPDEST POP JUMP JUMPDEST PUSH1 0x0 DUP2 MLOAD SWAP1 POP PUSH3 0x12B DUP2 PUSH3 0x100 JUMP JUMPDEST SWAP3 SWAP2 POP POP JUMP JUMPDEST PUSH1 0x0 DUP1 PUSH1 0x40 DUP4 DUP6 SUB SLT ISZERO PUSH3 0x14B JUMPI PUSH3 0x14A PUSH3 0x8C JUMP JUMPDEST JUMPDEST PUSH1 0x0 PUSH3 0x15B DUP6 DUP3 DUP7 ADD PUSH3 0xB5 JUMP JUMPDEST SWAP3 POP POP PUSH1 0x20 PUSH3 0x16E DUP6 DUP3 DUP7 ADD PUSH3 0x11A JUMP JUMPDEST SWAP2 POP POP SWAP3 POP SWAP3 SWAP1 POP JUMP JUMPDEST PUSH2 0xCFA DUP1 PUSH3 0x188 PUSH1 0x0 CODECOPY PUSH1 0x0 RETURN INVALID PUSH1 0x80 PUSH1 0x40 MSTORE PUSH1 0x4 CALLDATASIZE LT PUSH2 0x7B JUMPI PUSH1 0x0 CALLDATALOAD PUSH1 0xE0 SHR DUP1 PUSH4 0x937E09B1 GT PUSH2 0x4E JUMPI DUP1 PUSH4 0x937E09B1 EQ PUSH2 0x152 JUMPI DUP1 PUSH4 0xD7BB99BA EQ PUSH2 0x17D JUMPI DUP1 PUSH4 0xD7D1BBDB EQ PUSH2 0x187 JUMPI DUP1 PUSH4 0xE7B668B4 EQ PUSH2 0x1B0 JUMPI PUSH2 0x7B JUMP JUMPDEST DUP1 PUSH4 0xA144391 EQ PUSH2 0x80 JUMPI DUP1 PUSH4 0x481C6A75 EQ PUSH2 0xBD JUMPI DUP1 PUSH4 0x81D12C58 EQ PUSH2 0xE8 JUMPI DUP1 PUSH4 0x8A9CFD55 EQ PUSH2 0x129 JUMPI JUMPDEST PUSH1 0x0 DUP1 REVERT JUMPDEST CALLVALUE DUP1 ISZERO PUSH2 0x8C JUMPI PUSH1 0x0 DUP1 REVERT JUMPDEST POP PUSH2 0xA7 PUSH1 0x4 DUP1 CALLDATASIZE SUB DUP2 ADD SWAP1 PUSH2 0xA2 SWAP2 SWAP1 PUSH2 0x7DA JUMP JUMPDEST PUSH2 0x1D9 JUMP JUMPDEST PUSH1 0x40 MLOAD PUSH2 0xB4 SWAP2 SWAP1 PUSH2 0x822 JUMP JUMPDEST PUSH1 0x40 MLOAD DUP1 SWAP2 SUB SWAP1 RETURN JUMPDEST CALLVALUE DUP1 ISZERO PUSH2 0xC9 JUMPI PUSH1 0x0 DUP1 REVERT JUMPDEST POP PUSH2 0xD2 PUSH2 0x1F9 JUMP JUMPDEST PUSH1 0x40 MLOAD PUSH2 0xDF SWAP2 SWAP1 PUSH2 0x84C JUMP JUMPDEST PUSH1 0x40 MLOAD DUP1 SWAP2 SUB SWAP1 RETURN JUMPDEST CALLVALUE DUP1 ISZERO PUSH2 0xF4 JUMPI PUSH1 0x0 DUP1 REVERT JUMPDEST POP PUSH2 0x10F PUSH1 0x4 DUP1 CALLDATASIZE SUB DUP2 ADD SWAP1 PUSH2 0x10A SWAP2 SWAP1 PUSH2 0x89D JUMP JUMPDEST PUSH2 0x21F JUMP JUMPDEST PUSH1 0x40 MLOAD PUSH2 0x120 SWAP6 SWAP5 SWAP4 SWAP3 SWAP2 SWAP1 PUSH2 0x972 JUMP JUMPDEST PUSH1 0x40 MLOAD DUP1 SWAP2 SUB SWAP1 RETURN JUMPDEST CALLVALUE DUP1 ISZERO PUSH2 0x135 JUMPI PUSH1 0x0 DUP1 REVERT JUMPDEST POP PUSH2 0x150 PUSH1 0x4 DUP1 CALLDATASIZE SUB DUP2 ADD SWAP1 PUSH2 0x14B SWAP2 SWAP1 PUSH2 0xB01 JUMP JUMPDEST PUSH2 0x30A JUMP JUMPDEST STOP JUMPDEST CALLVALUE DUP1 ISZERO PUSH2 0x15E JUMPI PUSH1 0x0 DUP1 REVERT JUMPDEST POP PUSH2 0x167 PUSH2 0x422 JUMP JUMPDEST PUSH1 0x40 MLOAD PUSH2 0x174 SWAP2 SWAP1 PUSH2 0xB70 JUMP JUMPDEST PUSH1 0x40 MLOAD DUP1 SWAP2 SUB SWAP1 RETURN JUMPDEST PUSH2 0x185 PUSH2 0x428 JUMP JUMPDEST STOP JUMPDEST CALLVALUE DUP1 ISZERO PUSH2 0x193 JUMPI PUSH1 0x0 DUP1 REVERT JUMPDEST POP PUSH2 0x1AE PUSH1 0x4 DUP1 CALLDATASIZE SUB DUP2 ADD SWAP1 PUSH2 0x1A9 SWAP2 SWAP1 PUSH2 0x89D JUMP JUMPDEST PUSH2 0x490 JUMP JUMPDEST STOP JUMPDEST CALLVALUE DUP1 ISZERO PUSH2 0x1BC JUMPI PUSH1 0x0 DUP1 REVERT JUMPDEST POP PUSH2 0x1D7 PUSH1 0x4 DUP1 CALLDATASIZE SUB DUP2 ADD SWAP1 PUSH2 0x1D2 SWAP2 SWAP1 PUSH2 0x89D JUMP JUMPDEST PUSH2 0x5E5 JUMP JUMPDEST STOP JUMPDEST PUSH1 0x3 PUSH1 0x20 MSTORE DUP1 PUSH1 0x0 MSTORE PUSH1 0x40 PUSH1 0x0 KECCAK256 PUSH1 0x0 SWAP2 POP SLOAD SWAP1 PUSH2 0x100 EXP SWAP1 DIV PUSH1 0xFF AND DUP2 JUMP JUMPDEST PUSH1 0x1 PUSH1 0x0 SWAP1 SLOAD SWAP1 PUSH2 0x100 EXP SWAP1 DIV PUSH20 0xFFFFFFFFFFFFFFFFFFFFFFFFFFFFFFFFFFFFFFFF AND DUP2 JUMP JUMPDEST PUSH1 0x0 PUSH1 0x20 MSTORE DUP1 PUSH1 0x0 MSTORE PUSH1 0x40 PUSH1 0x0 KECCAK256 PUSH1 0x0 SWAP2 POP SWAP1 POP DUP1 PUSH1 0x0 ADD DUP1 SLOAD PUSH2 0x242 SWAP1 PUSH2 0xBBA JUMP JUMPDEST DUP1 PUSH1 0x1F ADD PUSH1 0x20 DUP1 SWAP2 DIV MUL PUSH1 0x20 ADD PUSH1 0x40 MLOAD SWAP1 DUP2 ADD PUSH1 0x40 MSTORE DUP1 SWAP3 SWAP2 SWAP1 DUP2 DUP2 MSTORE PUSH1 0x20 ADD DUP3 DUP1 SLOAD PUSH2 0x26E SWAP1 PUSH2 0xBBA JUMP JUMPDEST DUP1 ISZERO PUSH2 0x2BB JUMPI DUP1 PUSH1 0x1F LT PUSH2 0x290 JUMPI PUSH2 0x100 DUP1 DUP4 SLOAD DIV MUL DUP4 MSTORE SWAP2 PUSH1 0x20 ADD SWAP2 PUSH2 0x2BB JUMP JUMPDEST DUP3 ADD SWAP2 SWAP1 PUSH1 0x0 MSTORE PUSH1 0x20 PUSH1 0x0 KECCAK256 SWAP1 JUMPDEST DUP2 SLOAD DUP2 MSTORE SWAP1 PUSH1 0x1 ADD SWAP1 PUSH1 0x20 ADD DUP1 DUP4 GT PUSH2 0x29E JUMPI DUP3 SWAP1 SUB PUSH1 0x1F AND DUP3 ADD SWAP2 JUMPDEST POP POP POP POP POP SWAP1 DUP1 PUSH1 0x1 ADD SLOAD SWAP1 DUP1 PUSH1 0x2 ADD PUSH1 0x0 SWAP1 SLOAD SWAP1 PUSH2 0x100 EXP SWAP1 DIV PUSH20 0xFFFFFFFFFFFFFFFFFFFFFFFFFFFFFFFFFFFFFFFF AND SWAP1 DUP1 PUSH1 0x2 ADD PUSH1 0x14 SWAP1 SLOAD SWAP1 PUSH2 0x100 EXP SWAP1 DIV PUSH1 0xFF AND SWAP1 DUP1 PUSH1 0x3 ADD SLOAD SWAP1 POP DUP6 JUMP JUMPDEST PUSH1 0x1 PUSH1 0x0 SWAP1 SLOAD SWAP1 PUSH2 0x100 EXP SWAP1 DIV PUSH20 0xFFFFFFFFFFFFFFFFFFFFFFFFFFFFFFFFFFFFFFFF AND PUSH20 0xFFFFFFFFFFFFFFFFFFFFFFFFFFFFFFFFFFFFFFFF AND CALLER PUSH20 0xFFFFFFFFFFFFFFFFFFFFFFFFFFFFFFFFFFFFFFFF AND EQ PUSH2 0x364 JUMPI PUSH1 0x0 DUP1 REVERT JUMPDEST PUSH1 0x0 DUP1 PUSH1 0x0 PUSH1 0x4 PUSH1 0x0 DUP2 SLOAD DUP1 SWAP3 SWAP2 SWAP1 PUSH2 0x37C SWAP1 PUSH2 0xC1B JUMP JUMPDEST SWAP2 SWAP1 POP SSTORE DUP2 MSTORE PUSH1 0x20 ADD SWAP1 DUP2 MSTORE PUSH1 0x20 ADD PUSH1 0x0 KECCAK256 SWAP1 POP DUP4 DUP2 PUSH1 0x0 ADD SWAP1 DUP1 MLOAD SWAP1 PUSH1 0x20 ADD SWAP1 PUSH2 0x3A8 SWAP3 SWAP2 SWAP1 PUSH2 0x6C5 JUMP JUMPDEST POP DUP3 DUP2 PUSH1 0x1 ADD DUP2 SWAP1 SSTORE POP DUP2 DUP2 PUSH1 0x2 ADD PUSH1 0x0 PUSH2 0x100 EXP DUP2 SLOAD DUP2 PUSH20 0xFFFFFFFFFFFFFFFFFFFFFFFFFFFFFFFFFFFFFFFF MUL NOT AND SWAP1 DUP4 PUSH20 0xFFFFFFFFFFFFFFFFFFFFFFFFFFFFFFFFFFFFFFFF AND MUL OR SWAP1 SSTORE POP PUSH1 0x0 DUP2 PUSH1 0x2 ADD PUSH1 0x14 PUSH2 0x100 EXP DUP2 SLOAD DUP2 PUSH1 0xFF MUL NOT AND SWAP1 DUP4 ISZERO ISZERO MUL OR SWAP1 SSTORE POP PUSH1 0x0 DUP2 PUSH1 0x3 ADD DUP2 SWAP1 SSTORE POP POP POP POP POP JUMP JUMPDEST PUSH1 0x2 SLOAD DUP2 JUMP JUMPDEST PUSH1 0x2 SLOAD CALLVALUE GT PUSH2 0x436 JUMPI PUSH1 0x0 DUP1 REVERT JUMPDEST PUSH1 0x1 PUSH1 0x3 PUSH1 0x0 CALLER PUSH20 0xFFFFFFFFFFFFFFFFFFFFFFFFFFFFFFFFFFFFFFFF AND PUSH20 0xFFFFFFFFFFFFFFFFFFFFFFFFFFFFFFFFFFFFFFFF AND DUP2 MSTORE PUSH1 0x20 ADD SWAP1 DUP2 MSTORE PUSH1 0x20 ADD PUSH1 0x0 KECCAK256 PUSH1 0x0 PUSH2 0x100 EXP DUP2 SLOAD DUP2 PUSH1 0xFF MUL NOT AND SWAP1 DUP4 ISZERO ISZERO MUL OR SWAP1 SSTORE POP JUMP JUMPDEST PUSH1 0x0 DUP1 PUSH1 0x0 DUP4 DUP2 MSTORE PUSH1 0x20 ADD SWAP1 DUP2 MSTORE PUSH1 0x20 ADD PUSH1 0x0 KECCAK256 SWAP1 POP PUSH1 0x3 PUSH1 0x0 CALLER PUSH20 0xFFFFFFFFFFFFFFFFFFFFFFFFFFFFFFFFFFFFFFFF AND PUSH20 0xFFFFFFFFFFFFFFFFFFFFFFFFFFFFFFFFFFFFFFFF AND DUP2 MSTORE PUSH1 0x20 ADD SWAP1 DUP2 MSTORE PUSH1 0x20 ADD PUSH1 0x0 KECCAK256 PUSH1 0x0 SWAP1 SLOAD SWAP1 PUSH2 0x100 EXP SWAP1 DIV PUSH1 0xFF AND PUSH2 0x4FC JUMPI PUSH1 0x0 DUP1 REVERT JUMPDEST DUP1 PUSH1 0x4 ADD PUSH1 0x0 CALLER PUSH20 0xFFFFFFFFFFFFFFFFFFFFFFFFFFFFFFFFFFFFFFFF AND PUSH20 0xFFFFFFFFFFFFFFFFFFFFFFFFFFFFFFFFFFFFFFFF AND DUP2 MSTORE PUSH1 0x20 ADD SWAP1 DUP2 MSTORE PUSH1 0x20 ADD PUSH1 0x0 KECCAK256 PUSH1 0x0 SWAP1 SLOAD SWAP1 PUSH2 0x100 EXP SWAP1 DIV PUSH1 0xFF AND ISZERO PUSH2 0x555 JUMPI PUSH1 0x0 DUP1 REVERT JUMPDEST PUSH1 0x1 DUP2 PUSH1 0x4 ADD PUSH1 0x0 CALLER PUSH20 0xFFFFFFFFFFFFFFFFFFFFFFFFFFFFFFFFFFFFFFFF AND PUSH20 0xFFFFFFFFFFFFFFFFFFFFFFFFFFFFFFFFFFFFFFFF AND DUP2 MSTORE PUSH1 0x20 ADD SWAP1 DUP2 MSTORE PUSH1 0x20 ADD PUSH1 0x0 KECCAK256 PUSH1 0x0 PUSH2 0x100 EXP DUP2 SLOAD DUP2 PUSH1 0xFF MUL NOT AND SWAP1 DUP4 ISZERO ISZERO MUL OR SWAP1 SSTORE POP DUP1 PUSH1 0x3 ADD PUSH1 0x0 DUP2 SLOAD DUP1 SWAP3 SWAP2 SWAP1 PUSH2 0x5C4 SWAP1 PUSH2 0xC1B JUMP JUMPDEST SWAP2 SWAP1 POP SSTORE POP PUSH1 0x5 PUSH1 0x0 DUP2 SLOAD DUP1 SWAP3 SWAP2 SWAP1 PUSH2 0x5DC SWAP1 PUSH2 0xC1B JUMP JUMPDEST SWAP2 SWAP1 POP SSTORE POP POP POP JUMP JUMPDEST PUSH1 0x0 DUP1 PUSH1 0x0 DUP4 DUP2 MSTORE PUSH1 0x20 ADD SWAP1 DUP2 MSTORE PUSH1 0x20 ADD PUSH1 0x0 KECCAK256 SWAP1 POP DUP1 PUSH1 0x2 ADD PUSH1 0x14 SWAP1 SLOAD SWAP1 PUSH2 0x100 EXP SWAP1 DIV PUSH1 0xFF AND ISZERO PUSH2 0x617 JUMPI PUSH1 0x0 DUP1 REVERT JUMPDEST PUSH1 0x2 PUSH1 0x5 SLOAD PUSH2 0x626 SWAP2 SWAP1 PUSH2 0xC93 JUMP JUMPDEST DUP2 PUSH1 0x3 ADD SLOAD GT PUSH2 0x635 JUMPI PUSH1 0x0 DUP1 REVERT JUMPDEST DUP1 PUSH1 0x2 ADD PUSH1 0x0 SWAP1 SLOAD SWAP1 PUSH2 0x100 EXP SWAP1 DIV PUSH20 0xFFFFFFFFFFFFFFFFFFFFFFFFFFFFFFFFFFFFFFFF AND PUSH20 0xFFFFFFFFFFFFFFFFFFFFFFFFFFFFFFFFFFFFFFFF AND PUSH2 0x8FC DUP3 PUSH1 0x1 ADD SLOAD SWAP1 DUP2 ISZERO MUL SWAP1 PUSH1 0x40 MLOAD PUSH1 0x0 PUSH1 0x40 MLOAD DUP1 DUP4 SUB DUP2 DUP6 DUP9 DUP9 CALL SWAP4 POP POP POP POP ISZERO DUP1 ISZERO PUSH2 0x6A3 JUMPI RETURNDATASIZE PUSH1 0x0 DUP1 RETURNDATACOPY RETURNDATASIZE PUSH1 0x0 REVERT JUMPDEST POP PUSH1 0x1 DUP2 PUSH1 0x2 ADD PUSH1 0x14 PUSH2 0x100 EXP DUP2 SLOAD DUP2 PUSH1 0xFF MUL NOT AND SWAP1 DUP4 ISZERO ISZERO MUL OR SWAP1 SSTORE POP POP POP JUMP JUMPDEST DUP3 DUP1 SLOAD PUSH2 0x6D1 SWAP1 PUSH2 0xBBA JUMP JUMPDEST SWAP1 PUSH1 0x0 MSTORE PUSH1 0x20 PUSH1 0x0 KECCAK256 SWAP1 PUSH1 0x1F ADD PUSH1 0x20 SWAP1 DIV DUP2 ADD SWAP3 DUP3 PUSH2 0x6F3 JUMPI PUSH1 0x0 DUP6 SSTORE PUSH2 0x73A JUMP JUMPDEST DUP3 PUSH1 0x1F LT PUSH2 0x70C JUMPI DUP1 MLOAD PUSH1 0xFF NOT AND DUP4 DUP1 ADD OR DUP6 SSTORE PUSH2 0x73A JUMP JUMPDEST DUP3 DUP1 ADD PUSH1 0x1 ADD DUP6 SSTORE DUP3 ISZERO PUSH2 0x73A JUMPI SWAP2 DUP3 ADD JUMPDEST DUP3 DUP2 GT ISZERO PUSH2 0x739 JUMPI DUP3 MLOAD DUP3 SSTORE SWAP2 PUSH1 0x20 ADD SWAP2 SWAP1 PUSH1 0x1 ADD SWAP1 PUSH2 0x71E JUMP JUMPDEST JUMPDEST POP SWAP1 POP PUSH2 0x747 SWAP2 SWAP1 PUSH2 0x74B JUMP JUMPDEST POP SWAP1 JUMP JUMPDEST JUMPDEST DUP1 DUP3 GT ISZERO PUSH2 0x764 JUMPI PUSH1 0x0 DUP2 PUSH1 0x0 SWAP1 SSTORE POP PUSH1 0x1 ADD PUSH2 0x74C JUMP JUMPDEST POP SWAP1 JUMP JUMPDEST PUSH1 0x0 PUSH1 0x40 MLOAD SWAP1 POP SWAP1 JUMP JUMPDEST PUSH1 0x0 DUP1 REVERT JUMPDEST PUSH1 0x0 DUP1 REVERT JUMPDEST PUSH1 0x0 PUSH20 0xFFFFFFFFFFFFFFFFFFFFFFFFFFFFFFFFFFFFFFFF DUP3 AND SWAP1 POP SWAP2 SWAP1 POP JUMP JUMPDEST PUSH1 0x0 PUSH2 0x7A7 DUP3 PUSH2 0x77C JUMP JUMPDEST SWAP1 POP SWAP2 SWAP1 POP JUMP JUMPDEST PUSH2 0x7B7 DUP2 PUSH2 0x79C JUMP JUMPDEST DUP2 EQ PUSH2 0x7C2 JUMPI PUSH1 0x0 DUP1 REVERT JUMPDEST POP JUMP JUMPDEST PUSH1 0x0 DUP2 CALLDATALOAD SWAP1 POP PUSH2 0x7D4 DUP2 PUSH2 0x7AE JUMP JUMPDEST SWAP3 SWAP2 POP POP JUMP JUMPDEST PUSH1 0x0 PUSH1 0x20 DUP3 DUP5 SUB SLT ISZERO PUSH2 0x7F0 JUMPI PUSH2 0x7EF PUSH2 0x772 JUMP JUMPDEST JUMPDEST PUSH1 0x0 PUSH2 0x7FE DUP5 DUP3 DUP6 ADD PUSH2 0x7C5 JUMP JUMPDEST SWAP2 POP POP SWAP3 SWAP2 POP POP JUMP JUMPDEST PUSH1 0x0 DUP2 ISZERO ISZERO SWAP1 POP SWAP2 SWAP1 POP JUMP JUMPDEST PUSH2 0x81C DUP2 PUSH2 0x807 JUMP JUMPDEST DUP3 MSTORE POP POP JUMP JUMPDEST PUSH1 0x0 PUSH1 0x20 DUP3 ADD SWAP1 POP PUSH2 0x837 PUSH1 0x0 DUP4 ADD DUP5 PUSH2 0x813 JUMP JUMPDEST SWAP3 SWAP2 POP POP JUMP JUMPDEST PUSH2 0x846 DUP2 PUSH2 0x79C JUMP JUMPDEST DUP3 MSTORE POP POP JUMP JUMPDEST PUSH1 0x0 PUSH1 0x20 DUP3 ADD SWAP1 POP PUSH2 0x861 PUSH1 0x0 DUP4 ADD DUP5 PUSH2 0x83D JUMP JUMPDEST SWAP3 SWAP2 POP POP JUMP JUMPDEST PUSH1 0x0 DUP2 SWAP1 POP SWAP2 SWAP1 POP JUMP JUMPDEST PUSH2 0x87A DUP2 PUSH2 0x867 JUMP JUMPDEST DUP2 EQ PUSH2 0x885 JUMPI PUSH1 0x0 DUP1 REVERT JUMPDEST POP JUMP JUMPDEST PUSH1 0x0 DUP2 CALLDATALOAD SWAP1 POP PUSH2 0x897 DUP2 PUSH2 0x871 JUMP JUMPDEST SWAP3 SWAP2 POP POP JUMP JUMPDEST PUSH1 0x0 PUSH1 0x20 DUP3 DUP5 SUB SLT ISZERO PUSH2 0x8B3 JUMPI PUSH2 0x8B2 PUSH2 0x772 JUMP JUMPDEST JUMPDEST PUSH1 0x0 PUSH2 0x8C1 DUP5 DUP3 DUP6 ADD PUSH2 0x888 JUMP JUMPDEST SWAP2 POP POP SWAP3 SWAP2 POP POP JUMP JUMPDEST PUSH1 0x0 DUP2 MLOAD SWAP1 POP SWAP2 SWAP1 POP JUMP JUMPDEST PUSH1 0x0 DUP3 DUP3 MSTORE PUSH1 0x20 DUP3 ADD SWAP1 POP SWAP3 SWAP2 POP POP JUMP JUMPDEST PUSH1 0x0 JUMPDEST DUP4 DUP2 LT ISZERO PUSH2 0x904 JUMPI DUP1 DUP3 ADD MLOAD DUP2 DUP5 ADD MSTORE PUSH1 0x20 DUP2 ADD SWAP1 POP PUSH2 0x8E9 JUMP JUMPDEST DUP4 DUP2 GT ISZERO PUSH2 0x913 JUMPI PUSH1 0x0 DUP5 DUP5 ADD MSTORE JUMPDEST POP POP POP POP JUMP JUMPDEST PUSH1 0x0 PUSH1 0x1F NOT PUSH1 0x1F DUP4 ADD AND SWAP1 POP SWAP2 SWAP1 POP JUMP JUMPDEST PUSH1 0x0 PUSH2 0x935 DUP3 PUSH2 0x8CA JUMP JUMPDEST PUSH2 0x93F DUP2 DUP6 PUSH2 0x8D5 JUMP JUMPDEST SWAP4 POP PUSH2 0x94F DUP2 DUP6 PUSH1 0x20 DUP7 ADD PUSH2 0x8E6 JUMP JUMPDEST PUSH2 0x958 DUP2 PUSH2 0x919 JUMP JUMPDEST DUP5 ADD SWAP2 POP POP SWAP3 SWAP2 POP POP JUMP JUMPDEST PUSH2 0x96C DUP2 PUSH2 0x867 JUMP JUMPDEST DUP3 MSTORE POP POP JUMP JUMPDEST PUSH1 0x0 PUSH1 0xA0 DUP3 ADD SWAP1 POP DUP2 DUP2 SUB PUSH1 0x0 DUP4 ADD MSTORE PUSH2 0x98C DUP2 DUP9 PUSH2 0x92A JUMP JUMPDEST SWAP1 POP PUSH2 0x99B PUSH1 0x20 DUP4 ADD DUP8 PUSH2 0x963 JUMP JUMPDEST PUSH2 0x9A8 PUSH1 0x40 DUP4 ADD DUP7 PUSH2 0x83D JUMP JUMPDEST PUSH2 0x9B5 PUSH1 0x60 DUP4 ADD DUP6 PUSH2 0x813 JUMP JUMPDEST PUSH2 0x9C2 PUSH1 0x80 DUP4 ADD DUP5 PUSH2 0x963 JUMP JUMPDEST SWAP7 SWAP6 POP POP POP POP POP POP JUMP JUMPDEST PUSH1 0x0 DUP1 REVERT JUMPDEST PUSH1 0x0 DUP1 REVERT JUMPDEST PUSH32 0x4E487B7100000000000000000000000000000000000000000000000000000000 PUSH1 0x0 MSTORE PUSH1 0x41 PUSH1 0x4 MSTORE PUSH1 0x24 PUSH1 0x0 REVERT JUMPDEST PUSH2 0xA0E DUP3 PUSH2 0x919 JUMP JUMPDEST DUP2 ADD DUP2 DUP2 LT PUSH8 0xFFFFFFFFFFFFFFFF DUP3 GT OR ISZERO PUSH2 0xA2D JUMPI PUSH2 0xA2C PUSH2 0x9D6 JUMP JUMPDEST JUMPDEST DUP1 PUSH1 0x40 MSTORE POP POP POP JUMP JUMPDEST PUSH1 0x0 PUSH2 0xA40 PUSH2 0x768 JUMP JUMPDEST SWAP1 POP PUSH2 0xA4C DUP3 DUP3 PUSH2 0xA05 JUMP JUMPDEST SWAP2 SWAP1 POP JUMP JUMPDEST PUSH1 0x0 PUSH8 0xFFFFFFFFFFFFFFFF DUP3 GT ISZERO PUSH2 0xA6C JUMPI PUSH2 0xA6B PUSH2 0x9D6 JUMP JUMPDEST JUMPDEST PUSH2 0xA75 DUP3 PUSH2 0x919 JUMP JUMPDEST SWAP1 POP PUSH1 0x20 DUP2 ADD SWAP1 POP SWAP2 SWAP1 POP JUMP JUMPDEST DUP3 DUP2 DUP4 CALLDATACOPY PUSH1 0x0 DUP4 DUP4 ADD MSTORE POP POP POP JUMP JUMPDEST PUSH1 0x0 PUSH2 0xAA4 PUSH2 0xA9F DUP5 PUSH2 0xA51 JUMP JUMPDEST PUSH2 0xA36 JUMP JUMPDEST SWAP1 POP DUP3 DUP2 MSTORE PUSH1 0x20 DUP2 ADD DUP5 DUP5 DUP5 ADD GT ISZERO PUSH2 0xAC0 JUMPI PUSH2 0xABF PUSH2 0x9D1 JUMP JUMPDEST JUMPDEST PUSH2 0xACB DUP5 DUP3 DUP6 PUSH2 0xA82 JUMP JUMPDEST POP SWAP4 SWAP3 POP POP POP JUMP JUMPDEST PUSH1 0x0 DUP3 PUSH1 0x1F DUP4 ADD SLT PUSH2 0xAE8 JUMPI PUSH2 0xAE7 PUSH2 0x9CC JUMP JUMPDEST JUMPDEST DUP2 CALLDATALOAD PUSH2 0xAF8 DUP5 DUP3 PUSH1 0x20 DUP7 ADD PUSH2 0xA91 JUMP JUMPDEST SWAP2 POP POP SWAP3 SWAP2 POP POP JUMP JUMPDEST PUSH1 0x0 DUP1 PUSH1 0x0 PUSH1 0x60 DUP5 DUP7 SUB SLT ISZERO PUSH2 0xB1A JUMPI PUSH2 0xB19 PUSH2 0x772 JUMP JUMPDEST JUMPDEST PUSH1 0x0 DUP5 ADD CALLDATALOAD PUSH8 0xFFFFFFFFFFFFFFFF DUP2 GT ISZERO PUSH2 0xB38 JUMPI PUSH2 0xB37 PUSH2 0x777 JUMP JUMPDEST JUMPDEST PUSH2 0xB44 DUP7 DUP3 DUP8 ADD PUSH2 0xAD3 JUMP JUMPDEST SWAP4 POP POP PUSH1 0x20 PUSH2 0xB55 DUP7 DUP3 DUP8 ADD PUSH2 0x888 JUMP JUMPDEST SWAP3 POP POP PUSH1 0x40 PUSH2 0xB66 DUP7 DUP3 DUP8 ADD PUSH2 0x7C5 JUMP JUMPDEST SWAP2 POP POP SWAP3 POP SWAP3 POP SWAP3 JUMP JUMPDEST PUSH1 0x0 PUSH1 0x20 DUP3 ADD SWAP1 POP PUSH2 0xB85 PUSH1 0x0 DUP4 ADD DUP5 PUSH2 0x963 JUMP JUMPDEST SWAP3 SWAP2 POP POP JUMP JUMPDEST PUSH32 0x4E487B7100000000000000000000000000000000000000000000000000000000 PUSH1 0x0 MSTORE PUSH1 0x22 PUSH1 0x4 MSTORE PUSH1 0x24 PUSH1 0x0 REVERT JUMPDEST PUSH1 0x0 PUSH1 0x2 DUP3 DIV SWAP1 POP PUSH1 0x1 DUP3 AND DUP1 PUSH2 0xBD2 JUMPI PUSH1 0x7F DUP3 AND SWAP2 POP JUMPDEST PUSH1 0x20 DUP3 LT DUP2 EQ ISZERO PUSH2 0xBE6 JUMPI PUSH2 0xBE5 PUSH2 0xB8B JUMP JUMPDEST JUMPDEST POP SWAP2 SWAP1 POP JUMP JUMPDEST PUSH32 0x4E487B7100000000000000000000000000000000000000000000000000000000 PUSH1 0x0 MSTORE PUSH1 0x11 PUSH1 0x4 MSTORE PUSH1 0x24 PUSH1 0x0 REVERT JUMPDEST PUSH1 0x0 PUSH2 0xC26 DUP3 PUSH2 0x867 JUMP JUMPDEST SWAP2 POP PUSH32 0xFFFFFFFFFFFFFFFFFFFFFFFFFFFFFFFFFFFFFFFFFFFFFFFFFFFFFFFFFFFFFFFF DUP3 EQ ISZERO PUSH2 0xC59 JUMPI PUSH2 0xC58 PUSH2 0xBEC JUMP JUMPDEST JUMPDEST PUSH1 0x1 DUP3 ADD SWAP1 POP SWAP2 SWAP1 POP JUMP JUMPDEST PUSH32 0x4E487B7100000000000000000000000000000000000000000000000000000000 PUSH1 0x0 MSTORE PUSH1 0x12 PUSH1 0x4 MSTORE PUSH1 0x24 PUSH1 0x0 REVERT JUMPDEST PUSH1 0x0 PUSH2 0xC9E DUP3 PUSH2 0x867 JUMP JUMPDEST SWAP2 POP PUSH2 0xCA9 DUP4 PUSH2 0x867 JUMP JUMPDEST SWAP3 POP DUP3 PUSH2 0xCB9 JUMPI PUSH2 0xCB8 PUSH2 0xC64 JUMP JUMPDEST JUMPDEST DUP3 DUP3 DIV SWAP1 POP SWAP3 SWAP2 POP POP JUMP INVALID LOG2 PUSH5 0x6970667358 0x22 SLT KECCAK256 PUSH26 0x44215835F11E525555A8C058A4FF2EEAC2A0DCDC137D96C4ACE5 0xE MLOAD 0xC9 SIGNEXTEND BASEFEE PUSH5 0x736F6C6343 STOP ADDMOD EXP STOP CALLER "},"gasEstimates":{"creation":{"codeDepositCost":"664400","executionCost":"infinite","totalCost":"infinite"},"external":{"approveRequest(uint256)":"infinite","approvers(address)":"2846","contribute()":"26620","createRequest(string,uint256,address)":"infinite","finaliseRequest(uint256)":"infinite","manager()":"2537","minimumContribution()":"2429","requests(uint256)":"infinite"}},"methodIdentifiers":{"approveRequest(uint256)":"d7d1bbdb","approvers(address)":"0a144391","contribute()":"d7bb99ba","createRequest(string,uint256,address)":"8a9cfd55","finaliseRequest(uint256)":"e7b668b4","manager()":"481c6a75","minimumContribution()":"937e09b1","requests(uint256)":"81d12c58"}},"storageLayout":{"storage":[{"astId":59,"contract":"Campaign.sol:Campaign","label":"requests","offset":0,"slot":"0","type":"t_mapping(t_uint256,t_struct(Request)54_storage)"},{"astId":61,"contract":"Campaign.sol:Campaign","label":"manager","offset":0,"slot":"1","type":"t_address"},{"astId":63,"contract":"Campaign.sol:Campaign","label":"minimumContribution","offset":0,"slot":"2","type":"t_uint256"},{"astId":67,"contract":"Campaign.sol:Campaign","label":"approvers","offset":0,"slot":"3","type":"t_mapping(t_address,t_bool)"},{"astId":69,"contract":"Campaign.sol:Campaign","label":"numRequests","offset":0,"slot":"4","type":"t_uint256"},{"astId":72,"contract":"Campaign.sol:Campaign","label":"approversCount","offset":0,"slot":"5","type":"t_uint256"}],"types":{"t_address":{"encoding":"inplace","label":"address","numberOfBytes":"20"},"t_bool":{"encoding":"inplace","label":"bool","numberOfBytes":"1"},"t_mapping(t_address,t_bool)":{"encoding":"mapping","key":"t_address","label":"mapping(address => bool)","numberOfBytes":"32","value":"t_bool"},"t_mapping(t_uint256,t_struct(Request)54_storage)":{"encoding":"mapping","key":"t_uint256","label":"mapping(uint256 => struct Campaign.Request)","numberOfBytes":"32","value":"t_struct(Request)54_storage"},"t_string_storage":{"encoding":"bytes","label":"string","numberOfBytes":"32"},"t_struct(Request)54_storage":{"encoding":"inplace","label":"struct Campaign.Request","members":[{"astId":41,"contract":"Campaign.sol:Campaign","label":"description","offset":0,"slot":"0","type":"t_string_storage"},{"astId":43,"contract":"Campaign.sol:Campaign","label":"value","offset":0,"slot":"1","type":"t_uint256"},{"astId":45,"contract":"Campaign.sol:Campaign","label":"recipient","offset":0,"slot":"2","type":"t_address"},{"astId":47,"contract":"Campaign.sol:Campaign","label":"complete","offset":20,"slot":"2","type":"t_bool"},{"astId":49,"contract":"Campaign.sol:Campaign","label":"approvalCount","offset":0,"slot":"3","type":"t_uint256"},{"astId":53,"contract":"Campaign.sol:Campaign","label":"approvals","offset":0,"slot":"4","type":"t_mapping(t_address,t_bool)"}],"numberOfBytes":"160"},"t_uint256":{"encoding":"inplace","label":"uint256","numberOfBytes":"32"}}},"userdoc":{"kind":"user","methods":{},"version":1}}